:020000040800F2
:10000000801E00204D020008215900085D5600089E
:100010001D590008CD200008AD7300080000000045
:10002000000000000000000000000000B9620008AD
:10003000BD25000800000000BD590008016300084C
:10004000670200086702000867020008B55A000846
:1000500067020008670200086702000867020008DC
:100060006702000867020008670200080925000807
:1000700015250008670200086702000867020008EB
:1000800067020008670200086702000867020008AC
:10009000670200086702000867020008670200089C
:1000A000670200086702000867020008670200088C
:1000B000670200086702000867020008670200087C
:1000C000670200086702000867020008670200086C
:1000D0005570000867020008670200086702000800
:1000E000670200086702000867020008670200084C
:1000F0006556000869560008C14D000867020008EF
:10010000670200086702000867020008670200082B
:10011000670200086702000867020008670200081B
:10012000670200086702000867020008670200080B
:1001300067020008670200082125000800F002F8A5
:1001400000F075F80AA090E8000C82448344AAF1FC
:100150000107DA4501D100F06AF8AFF2090EBAE8FA
:100160000F0013F0010F18BFFB1A43F001031847EB
:10017000B8980000E89800000A4410F8014B14F009
:100180000F0508BF10F8015B240908BF10F8014BE8
:100190006D1E05D010F8013B6D1E01F8013BF9D131
:1001A000641E03D0641E01F8015BFBD19142E4D3CD
:1001B00070470000103A24BF78C878C1FAD85207B7
:1001C00024BF30C830C144BF04680C6070470000D1
:1001D0000023002400250026103A28BF78C1FBD850
:1001E000520728BF30C148BF0B607047662908F02E
:1001F0004C84642900F0F680782900F05A810020B0
:1002000070471FB508F034FC9DE8030001F0C0F80A
:1002100000F038FE04000020002108F001FBE0603F
:1002200000F03EFD1FBD10B500F0A3FD10BD01F0B4
:100230006DF81146FFF7E5FF07F04AFD01F006FAF9
:1002400003B4FFF7F0FF03BC00F0AAFA09488047A7
:1002500009480047FEE7FEE7FEE7FEE7FEE7FEE7A8
:10026000FEE7FEE7FEE7FEE704480549054A064BC0
:1002700070470000C96300083D0100088018002095
:10028000801E0020801A0020801A002053EA020CF1
:1002900000F069802DE9F04B4FF00006002B1FBFE6
:1002A000B3FA83F503FA05F424FA05F65E4012BFAB
:1002B0001643B2FA82F502FA05F4C5F120051EBF15
:1002C00022FA05FC44EA0C04203556EA044C4FEAB5
:1002D000144418BF641C4FF000084FF0000990420E
:1002E00071EB030C39D3002919BFB1FA81F701FA78
:1002F00007F6B0FA80F700FA07F6C7F120071EBF2D
:1003000020FA07FC46EA0C062037B6FBF4FCA7EB04
:100310000507103F07F01F0BCBF120062CFA06F65D
:100320000CFA0BFB44BFB3460026202FA4BF5E4649
:100330004FF0000B5BEA060C08BF4FF0010B19EB06
:100340000B0948EB0608ABFB027C06FB02CC0BFB5F
:1003500003CCC01B71EB0C01C1E70B4602464146C2
:100360004846BDE8F08B13B5084318BF4FF0FF3087
:100370000146AFF30080BDE81C4070470FB404494C
:1003800010B503AA029800F079FC10BC5DF814FBCC
:10039000D400002070B5044685690068C10601D507
:1003A000302600E02026C00707D070BDD4E9012127
:1003B00030469047206A401C20626D1EF6D570BD05
:1003C00070B5044685690078C00707D170BDD4E9CF
:1003D000012120209047206A401C20626D1EF6D526
:1003E00070BD00002DE9F041064600241068752913
:1003F000314616A510D0AFF30080002802DA404243
:1004000013A507E031688A0701D512A502E0490764
:1004100004D511A5012401E0AFF3008000210A22D8
:1004200006F1240709E0B0FBF2FCB0FBF2F302FB9B
:100430001C00303078541846491C0028F3D123465C
:100440002A463046BDE8F04100F0B0B90000000097
:100450002D0000002B00000020000000F0B40D462D
:100460000188090502D5214C7C4402E01F4C7C44E4
:100470000E34002100F1240608E002F00F071209F3
:10048000E75D42EA03721B097754491C52EA0307ED
:10049000F3D102780023120704D5702D06D009B1DC
:1004A000022311342246F0BC00F080B9012310343D
:1004B000F8E770B504460D4621461068AFF300809A
:1004C000024629462046BDE870400023C6E7D21DFB
:1004D00022F00703D3E90023C0E70368126843F062
:1004E000200303600823C3610023B7E722860000CE
:1004F0002DE9F05F894604464FF0000ADFF874B139
:10050000FB44C0F820A02046E1688847002874D04A
:10051000252806D0D4E901219047206A401C20629A
:10052000F1E700265F462046E16888472028054617
:1005300007DB312D05D2781910F8200C08B10643DD
:10054000F1E7B00701D526F00406C4F81CA0002787
:10055000C4F818A02A2D09D0284608F059F938B354
:1005600004EB8708303DC8F8185019E059F8041B0F
:10057000204604EB87029161E1688847012F054618
:1005800018D1E069002820DA26F020061DE0D8F80E
:10059000180000EB800005EB40003038C8F8180068
:1005A0002046E1688847054608F032F90028EED178
:1005B000012F0AD02E2D08D12046E16888477F1CE4
:1005C0000546022F46F02006C4DBA069002803DAA6
:1005D000404246F00106A061F00701D026F0100667
:1005E0006C2D0BD0682D09D04C2D39D06A2D35D00B
:1005F000742D35D07A2D33D016E038E0E1682F46DF
:1006000020468847B842054609D16C2F26D04FF4C2
:100610008060E168064320468847054604E06C2F69
:100620001AD04FF4807006430DB3A5F1410019288C
:1006300002D8203546F400664A4629462046266000
:100640004E46FFF7D3FD80B101280BD0F61D26F0F2
:10065000070000F1080956E74020E4E78020D8E7CA
:100660000020D6E706F104094DE7284652E7206A44
:10067000BDE8F09FB2850000014907F0BFB9000056
:10068000D400002010B5044603E007F0B7F9401C81
:1006900009D014F8010B05490028F6D1BDE8104037
:1006A0000A2007F0ABB94FF0FF3010BDD400002096
:1006B000032A40F2308010F0030C00F0158011F88E
:1006C000013BBCF1020F624498BF11F801CB00F866
:1006D000013B38BF11F8013BA2F1040298BF00F8BA
:1006E00001CB38BF00F8013B11F0030300F0748325
:1006F000083AC0F0088051F8043B083A51F804CB9E
:10070000A0E80810F5E7121D5CBF51F8043B40F863
:10071000043BAFF30080D20724BF11F8013B11F86E
:1007200001CB48BF11F8012B24BF00F8013B00F8B2
:1007300001CB48BF00F8012B704702F0FF0343EAEA
:10074000032242EA024200F07BBB4FF0000200B5F8
:10075000134694469646203922BFA0E80C50A0E8E4
:100760000C50B1F12001BFF4F7AF090728BFA0E892
:100770000C5048BF0CC05DF804EB890028BF40F85E
:10078000042B08BF704748BF20F8022B11F0804FA0
:1007900018BF00F8012B7047704770477047000082
:1007A00001491820ABBEFEE7260002002DE9F04704
:1007B0000D4699469246044600F1240801688806D1
:1007C00004D5E06921F01001216000E00120A84279
:1007D00001DD471B00E00027A1697A1902EB09003F
:1007E000081AA0612078C00602D42046FFF7D2FD87
:1007F000002608E0D4E901211AF806009047206A93
:10080000401C761C20624E45F4DB2078C0060AD5D9
:100810002046FFF7BFFD06E0D4E9012130209047D4
:10082000206A401C2062381EA7F10107F4DC07E0B3
:10083000D4E9012118F805009047206A401C206285
:10084000281EA5F10105F3DC2046FFF7B9FD20784D
:10085000000602D50220BDE8F0870120FBE72DE964
:10086000FF4F0C461E464FF0FF378BB0D2E9000118
:10087000DDF860800A908A46C1F30A5505B93D4605
:10088000002108464FF00000BAF1000F00F44000CC
:1008900005DA00EB80004FF4400101EA50004FEA16
:1008A0009059B9F1010F00DDB9460A9850EA4A00A3
:1008B0000ED044F61050A5F2FF3545432F14B8F181
:1008C000000F1ED07542291E1EDDC9F100021CE07A
:1008D000B8F1010F4FF0000001D0302103E0F243E6
:1008E00005E02154401CB042FBDB304600220021D1
:1008F00021540B99C1F80880C1E900200FB0BDE870
:10090000F08FBD1B6D1CDEE74A4600DA694206A87F
:1009100000F080FB06AB93E8070003AB83E8070019
:1009200050460A9907F094FB8DE80700A0F50050A7
:100930001F3800900398002D0ADD42F21F014A463D
:100940000844002303A90390684607F0FDFD09E071
:10095000A0F500504A461F38002303A903906846BB
:1009600007F007FE8DE807000004000C03D04FF0ED
:10097000FF30410800E01046B8F1000F03D000221C
:10098000009215461EE0751E05D400F0A6FA30321E
:1009900062556D1EF9D5B3460122084302D00022EC
:1009A0007F1C04E02078302801D100227F1E002A1D
:1009B000099784D01DE0112D07DA00F08EFA30324D
:1009C00062556D1C50EA0102F5D1084302D000982F
:1009D000C8B10EE00021681E05E0235C625C635430
:1009E0002254401E491C8142F7DBAB46A81B401E27
:1009F0000990002004F80B000B98099AC0F80880B1
:100A0000C0E9002B7AE711264FF0000857E72DE9DF
:100A1000F04F88460446D21D22F0070191B0D1E97B
:100A20000001CDE90A0107F0DBFE02460B98C00F7A
:100A300001D02D2007E02068810701D52B2002E09E
:100A4000202101EAC000032A099001D0072A05DB12
:100A500003464146204600F09DFA0BE120788006CF
:100A600001D5E06900E00620B8F1650F814606D0A7
:100A7000B8F1660F18D0B8F1670F70D131E00020DF
:100A8000B9F1110F009001DB112301E009F101031D
:100A90000AAA01A90CA8FFF7E2FEDDE90C70002606
:100AA00009F10105834647E001204B4600904FF0D5
:100AB00000470AAA01A90CA8FFF7D1FEDDE90DB095
:100AC0000C995D46002610B909F101000D18B9EB2B
:100AD000050003D4C0F1FF3609F10105A5EB0900BB
:100AE0002BE0B9F1010F01DA4FF001090020B9F153
:100AF000110F0090484601DD112300E003460AAAC9
:100B000001A90CA8FFF7ABFEDDE90C704D460026ED
:100B10008346207800070AD4AB4500DA5D4601A879
:100B2000012D04DD411911F8011C302907D04F4572
:100B300002DA17F1040F04DA012082460FE06D1E7D
:100B4000EEE7002F02DCED1B3E4403E0781CA842D8
:100B500000DD7D1CB81B00F1010A4FF00047207832
:100B6000000703D4AA4501DB4FF0FF3A0021B7F19B
:100B7000004F0DF143088DF8431024D002202B23A1
:100B8000002F01DA7F422D230A21021EA0F101006D
:100B900000DC5FB197FBF1FC97FBF1F201FB1C7CE1
:100BA00017460CF1300C08F801CDEEE7A8F1010072
:100BB00003702188090501D5452100E06521A0F1D8
:100BC000010800F8011C09980FA9A1EB0807FF1DF7
:100BD00000B10120411901EBEA70A1693844081AFB
:100BE000401EA0612078C00602D42046FFF7D2FB49
:100BF000099828B1D4E901219047206A401C20625D
:100C00002078C00622D52046FFF7C4FB1EE0002E48
:100C100004DBB34502DD01A8805D00E03020D4E9AB
:100C200001219047206A401C2062761CAAF1010035
:100C30005FEA000A0AD100F025F9C0680168405C4B
:100C4000D4E901219047206A401C2062281EA5F1AA
:100C50000105DCDC07E0D4E9012118F8010B90471D
:100C6000206A401C2062381EA7F10107F3DC2046F1
:100C7000FFF7A6FB032011B041E60000074B70B55B
:100C80000D467B4400F073F90446284600F034FA20
:100C900010B14FF0FF3070BD204670BD776D000081
:100CA00010B542485421FFF750FD41485421FFF749
:100CB0004CFD40485421FFF748FD3F493B483C4A22
:100CC0003F4B08603D490A603A491960531C03656F
:100CD000481C1065012008653B48344A39A1784416
:100CE00000F032FA20B9384878440A3800F0CFFAD8
:100CF00037482F4A35A1784400F026FA20B9344805
:100D000078440A3800F0C3FA32482A4A2FA17844BE
:100D100000F01AFA20B92F4878440A3800F0B7FAE0
:100D200040232248DC000021224600F0E9F920B1EE
:100D300025487844543800F0AAFA1D48224640233A
:100D4000002100F0DDF920B121487844543800F04A
:100D50009EFA184822461023002100F0D1F90028FD
:100D600006D01C487844BDE81040563800F08FBAD1
:100D700010BD104870B5006D20F001040B4800F064
:100D80005BFA0B4800F058FA0A4800F055FA09E0FF
:100D9000206D20F00105204600F04EFA204600F0BC
:100DA00075F82C46002CF3D170BD000080000020A7
:100DB000D400002028010020080000200C000020A2
:100DC0001000002072000000E57D000077000000A8
:100DD000D17D0000BD7D000010B5203AC0F00B8031
:100DE000B1E81850A0E81850B1E81850A0E8185021
:100DF000203ABFF4F5AF5FEA027C24BFB1E8185097
:100E0000A0E8185044BF18C918C0BDE810405FEAF8
:100E1000827C24BF51F8043B40F8043B08BF704774
:100E2000D20728BF31F8023B48BF11F8012B28BF79
:100E300020F8023B48BF00F8012B70474FF000023A
:100E40000429C0F0128010F0030C3FF480ACCCF108
:100E5000040CBCF1020F18BF00F8012BA8BF20F84A
:100E6000022BA1EB0C01FFF772BC5FEAC17C24BF2F
:100E700000F8012B00F8012B48BF00F8012B704748
:100E800070470000004870479C01002070B5044680
:100E9000051F00F061FA0068002C14BF446870BDA3
:100EA000002C18BFAC423CBF20466468F8D30168F0
:100EB0000A18AA4218BF456003D12A6805461144A2
:100EC000016028684119A1421CBF6C6070BD616857
:100ED000696021680844286070BD30B5B0F10A022D
:100EE00071F100034FEA900E4EEA817EB0EB0E00E6
:100EF00061EB91014FEA101E4EEA017E10EB0E00ED
:100F000041EB11114FEA102E4EEA016E10EB0E006C
:100F100041EB11214FEA104E4EEA014E10EB0E004C
:100F200041EB1141401841F100014FEAD00040EA85
:100F300041704FEAD1014FEA810444EA907410EB0A
:100F4000800544EB01046D1944EB0404521BA341DA
:100F50004FF0000348BF0A3200D530BD401C41F1BC
:100F6000000130BD01694A1C02610878704700B574
:100F70008FB0CDE901310021059105497944CDE9D2
:100F8000031011466846FFF7B3FA0FB000BD00002A
:100F9000E5FFFFFF2DE9F0411F46044603260168E7
:100FA000072A01F4006004DB08B116A505E016A5C8
:100FB00003E008B115A500E015A521F010002060A0
:100FC000A069C01EA0610FB1401EA0612046FFF7BE
:100FD000E1F94FB1D4E9012138469047206A401C1D
:100FE0002062C01C206206E0206AFAE7D4E90121F1
:100FF00015F8010B9047761EF8D22046FFF7E0F96E
:10100000BDE8F0814E414E006E616E00494E4600D3
:10101000696E66002DE9F047814616468AB035486C
:1010200078440DC88DE80D0032487844801C03AC2C
:101030000DC884E80D0041F69B300844372190FB31
:10104000F1F290FBF1F5A5F1800501FB12041B3CC8
:1010500002D56442012000E00020DFF898A080461D
:101060000027FA44AAF1BE0A0EE0E0070AD0324691
:10107000684607EB470101230AEB810107F079FA83
:101080008DE8070064107F1C002CEED1194F7F44BF
:10109000AE3F19E0E80715D007EB04100DF1180A70
:1010A00090E80E008AE80E00C068F04201D198195D
:1010B00008903246012306A903A807F05AFA03ABA9
:1010C00083E807006D10641C002DE3D14FF001038D
:1010D00032466946B8F1000F03A802D007F034FA8F
:1010E00001E007F046FAC9E90001C9F808200AB092
:1010F000BDE8F0872C7B0000007B00F0800070478B
:1011000070B5C468A50713D0650211D4B2F5807F0D
:1011100009D0B2F5007F06D0B2F5806F08D1012367
:1011200000F1240106E05D1E6FF07F46B54201D359
:10113000012070BD0161C361416024F470611143FD
:10114000C160002070BD00002DE9F0410C4616463C
:10115000070047D0104600F06FF82078611C612826
:101160000AD0722802D077283CD102E00125002461
:1011700005E00225042402E0082448F2020511F8E3
:10118000010B2B2806D0622809D011F8010C742815
:101190000AD00BE045F0030544F00204EFE745F008
:1011A000040544F00104EAE744F0100438462146FF
:1011B00000F074F8411C15D00021316171604FF4CA
:1011C0000071F560F1617061200704D5304602229C
:1011D000002100F03BF9306D40F0010030653046F1
:1011E000BDE8F0810020FBE72DE9F0410D46064601
:1011F000104C206DC10704D0410804D020F0010438
:10120000F7E722460EE0542000F0F1F807000ED078
:10121000206D47F001010843542120653846FFF74F
:1012200094FA3A4629463046BDE8F0418CE7002062
:10123000D6E70000800000202DE9F04704464FF07B
:10124000FF380026C568D4E90497A80718D02046BF
:1012500000F0B8F9384600F02BF8002800DA4646CE
:10126000280502D54846FFF711FE4C212046FFF71E
:101270006CFA206D20F0010020653046BDE8F08753
:101280004046FBE7002801D0FFF78ABA704710B547
:1012900000F0FEF9BDE81040FFF7F4BF0EB5CDE950
:1012A000000100F09FFA029069460120ABBE0EBD1E
:1012B00008B5694600900220ABBE08BD1FB58DE899
:1012C000070069460520ABBE04B010BD1FB58DE810
:1012D0000F0069460620ABBEF6E708B569460090E8
:1012E0000920ABBE08BD1CB5CDE9000169460A2046
:1012F000ABBE1CBD704708B5694600900C20ABBE64
:1013000008BD0000004870477C0100207546FFF7CB
:10131000F9FFAE4605006946534620F007008546B2
:1013200018B020B5FEF7A0FFBDE820404FF0000642
:101330004FF000074FF000084FF0000BAC46ACE850
:10134000C009ACE8C009ACE8C009ACE8C00921F0AC
:1013500007018D4670470000004870478401002057
:10136000704770477047704738B504460A460020FA
:101370006946AFF30080002808BF38BD02460099D7
:10138000204600F0EDF9012038BD012000F023BA1D
:10139000F8B5AFF30080054600200C46102000BFD2
:1013A0000646A819A0420DD9324669460020AFF37F
:1013B0000080070008BF00F00EFA0098A04218BF96
:1013C0000546C419FFF7C8FF05600746F01D20F069
:1013D00007004619284600F0BCF9B44208BFF8BD22
:1013E000A21B31463868BDE8F84000F0B9B970B5C5
:1013F0000646FFF7B1FF056806F10B0020F0070471
:10140000B4429CBF002070BD2B466A68BAB1106818
:10141000A04210D304F1080188423CBF50685860D4
:1014200007D35168101941601168091B01605860A9
:101430001460101D70BD13465268002AE7D1214682
:101440002846FFF791FF0028DED170BD2DE9F0415D
:10145000044616460D464769007B80072ED0384665
:10146000FFF73BFF50BB3EB3012E02D0022E25D129
:1014700004E0204600F08EF905441DE03846FFF7F1
:101480003AFFE168002841F01001E16005DA2046EA
:1014900000F058F80120BDE8F081C9030BD562685F
:1014A000E16A914200D81146A26911442269891A61
:1014B000814200DD08460544002D01DA0220EAE7FA
:1014C000E16A6068E268814206D29103E06203D576
:1014D00022F4003141F01002A6690027AE4213DC6D
:1014E000E16A814201D90B4600E0034603EB060C9A
:1014F0002369ACEB030CAC4506DD814201D98C4677
:1015000000E084469C4505D1A760276042F020009A
:10151000A5620DE0AD1BE669AE1B8142A66000D955
:101520000846C01A281A20605819606022F020006E
:1015300003490840E060002084F84870ABE70000F1
:10154000BFCFD7FFC16821F4001141F08001C16015
:1015500000218160016070472DE9F74F15460C4668
:101560004FF0FF3B3848D768D2F814A0074209D0A3
:101570005046A969FFF7B7FE002819DB3248C0437F
:101580000740EF604FF000496FF000484C4501D331
:10159000464600E0264600993B4650463246FFF755
:1015A0008DFEA96920F00042B21A1144A96128B148
:1015B0002846FFF7C7FF5846BDE8FE8FA41BE5D1BC
:1015C0000020F9E770B504460569C06A6168884281
:1015D00000D80846E16821F42011E160C90312D562
:1015E000A84208D02246411B2846FFF7B5FF10B19C
:1015F0004FF0FF3070BD0020E562C4E90150E068A3
:1016000020F48030E060002070BD10B50446C06852
:1016100020F02000E060A16AA06988420DD0204639
:10162000FFF7D0FFE06820F4405040F01000E06089
:10163000A06AA0612069E062606044F24001E06855
:101640008843E06010BD00001000020010B50446A1
:10165000AFF300802046BDE81040FEF7F1BD70B545
:1016600005460C460A2000E06D1C00F06BF835B111
:1016700028780028F8D102E0641C00F063F814B167
:1016800020780028F8D1BDE870400A2000F05AB850
:1016900010B5014602A0FFF7E2FF012010BD0000D7
:1016A00053494752545245443A2052656469726521
:1016B00063743A2063616E2774206F70656E3A2000
:1016C000000000000000000030B44FF0013C50F872
:1016D000042B51F8043BCCFA52F4D51A20D1FCB9B2
:1016E00050F8042B51F8043BCCFA52F4D51A17D118
:1016F000B4B950F8042B51F8043BCCFA52F4D51A83
:101700000ED16CB950F8042B51F8043BCCFA52F4CA
:10171000D51A05D1002CDAD030BC4FF0000070474C
:1017200029BAB1FA81F111F01801D1F120008440F9
:10173000F2D1CA40CB4012F0FF0213F0FF0330BCDD
:10174000D01A704708B569468DF800000320ABBE7B
:1017500008BD00210160C0E90110704710207047EA
:10176000034640688C46002818BF88423CBF0346A9
:101770004068F8D318681844884207D00CF1030079
:1017800020F00700001D411A521A0146081D0A6088
:10179000FFF77CBB10B50146C268900703D09006E6
:1017A00007D5886A0AE000F03DF801210160881E33
:1017B00010BD8B69486818440B69C01A91F848300D
:1017C0001BB191F84910401A10BD1103FCD5002837
:1017D000FADD401E10BD10B500F028F8BDE810403D
:1017E000FFF750BD10B5431C02E010F8011B71B1AA
:1017F0008107FAD14FF0013202C88C1A8C4314EAE7
:10180000C211F9D0C01A0A0603D0C01E10BDC01AFA
:1018100010BD0A0401D0801E10BD0902FCD0401E7C
:1018200010BD0000004870477C01002010B5012861
:1018300005D0002103A0FFF712FF012010BD09A170
:10184000F8E7000053494752544D454D3A204F7533
:1018500074206F662068656170206D656D6F7279A8
:10186000000000003A2048656170206D656D6F7260
:101870007920636F727275707465640010B588B0FA
:1018800048F66830C0F6000090E80E5044690191B7
:10189000018B807E02920393CDF810C0CDF814E046
:1018A0000694ADF81C108DF81E0004F07FFE01A810
:1018B00004F018FA08B010BD80B500F089FE00F001
:1018C00091FE40F69000C5F60000016841F48031B9
:1018D0000160BDE8804000F02DBE000070470000B0
:1018E000B0B588B045680446B5F80B00A0F51240C5
:1018F000072800F2CE80DFE800F0057191CCA5B199
:10190000B7BF00BF684604F0FBF99DF800109DF8D2
:1019100001209DF8023048F62060C0F60000FEF776
:101920002DFD9DF8041048F6EE50C0F60000FEF7BD
:1019300025FD9DF80A109DF80B209DF80C3048F607
:101940000A60C0F60000FEF719FD48F69B70C0F66D
:101950000000FEF713FD60680025407B0695012816
:10196000CDF81550CDF8115000F08C80002840F0D3
:10197000938049F20800C0F60000FEF783FEFFF7EF
:101980007DFF0F208DF810007F2042F200058DF8BA
:101990001200CEF204052868040C48F67970C0F6EF
:1019A00000002146FEF7EAFCADF81C402C6848F622
:1019B00059706FF31F34C0F600002146FEF7DEFCBD
:1019C00004A8ADF81E4004F07FF900F0AFF8012044
:1019D000002105F065FB08B0B0BD00BF48F6D76038
:1019E000C0F60000FEF7CAFC646848F62970617B07
:1019F000C0F60000FEF7C2FC617B49F2220049F20A
:101A00005902C0F60000C0F60002002908BF1046C7
:101A100008B0BDE8B040FEF735BE00BF48F6BA706A
:101A2000C0F60000FEF72EFED5F80D10D5F81120F7
:101A300048F64460C0F6000008B0BDE8B040FEF7CC
:101A40009DBC00BFD5F80D1048F66C60C0F60000D4
:101A500008B0BDE8B040FEF791BC00BF2AA008B0B6
:101A6000BDE8B040FEF78ABCD5F80D1017A008B04D
:101A7000BDE8B040FEF782BC0BA008B0BDE8B040A6
:101A8000FEF77CBC48F6F860C0F60000FEF776FC76
:101A9000257008B0B0BD00BF48F6A560C0F60000D4
:101AA000FEF76CFC08B0B0BD3E3E3D3D20534843C0
:101AB000495F5355425F4556545F4E564D5F454E04
:101AC000445F45524153450A0D0000003D3D3E3EF6
:101AD000534843495F5355425F4556545F4E564DF8
:101AE0005F53544152545F4552415345203A204E72
:101AF000756D6265724F66536563746F7273203DD6
:101B000020256C640A0000003E3E3D3D20534843C2
:101B1000495F5355425F4556545F4E564D5F454EA3
:101B2000445F57524954450A0D000000F0B599B082
:101B300048F68430C0F6000000F1100E90E82E0048
:101B40009EE8105006AEC7692EC6CDE90A4C00F1DA
:101B50002005D0E90C46008F2ECDADF8500040F2A4
:101B60002800C2F20300159042F29500C0F6000072
:101B70000DF1380C169042F2AD008CE82E00C0F644
:101B8000000015A9CDE90CE71294139605F06EFF3D
:101B90000220012105F084FA47F66142C0F60002F6
:101BA0000220002105F0AEFA06A804F07FF838B153
:101BB0000146B5A0FEF7E2FB00F004FD03E000BF24
:101BC000BFA0FEF7DBFB0020ADF85E0049F6531026
:101BD000C0F60000FEF756FD05F0ACFF40B101462F
:101BE00049F2D510C0F60000FEF7C8FB03E000BFC5
:101BF000BDA0FEF747FD47F28051C1F6FF710868AE
:101C000040F24C25421CC2F200050DD049682C461A
:101C100004F80A0F000A6070080C0A0A2071080E06
:101C2000A170E270607109E0002003F07DFE48F6CB
:101C3000D854C0F60004002818BF0446002006212E
:101C4000224605F0ADFE38B1014649F29300C0F6D8
:101C50000000FEF793FB14E049F27F70C0F600002D
:101C6000FEF710FD6078A678617922792778E3780D
:101C7000CDE9006049F21340C0F600000297FEF77C
:101C80007DFB48F6C852C0F600021820102105F06E
:101C900087FE38B1014649F24210C0F60000FEF757
:101CA0006DFB05E049F60E00C0F60000FEF7EAFC09
:101CB00048F6B852C0F600020820102105F070FE68
:101CC00040B1014649F2ED00C0F60000FEF756FBB8
:101CD00006E000BF49F2C970C0F60000FEF7D2FC72
:101CE0000120182105F034FE90B1014649F2971009
:101CF000C0F60000FEF742FB05F0B0FD90B10146D2
:101D000049F23220C0F60000FEF738FB10E000BFB9
:101D100049F65300C0F60000FEF7B4FC05F09EFD46
:101D20000028ECD149F6A100C0F60000FEF7AAFC9D
:101D30000DF1620018AF009015AB012000210822C0
:101D4000019705F037FB38B1014649F20220C0F691
:101D50000000FEF713FB05E049F68100C0F6000025
:101D6000FEF790FCBDF85400BDF8621066A7002293
:101D70000823009705F092FDBDF85400BDF86010EF
:101D80000DF15E0700220223009705F087FD002079
:101D90000221022205F094FE90B1014649F2AD20E5
:101DA000C0F60000FEF7EAFA012005F025FC90B12C
:101DB000014649F2E720C0F60000FEF7DFFA10E026
:101DC00049F6FC00C0F60000FEF75CFC012005F0BF
:101DD00013FC0028ECD149F62610C0F60000FEF7EF
:101DE00051FC4BF207200027C0F20100102108220D
:101DF000CDE90021CDE9027000200121012200235C
:101E0000049705F06DFB38B1014649F26320C0F636
:101E10000000FEF7B3FA05E049F6C200C0F6000084
:101E2000FEF730FC49F25F50C0F60000FEF7A6FA5C
:101E300004F038F9002028704FF6FF7041F6157253
:101E4000A880C0F600020120002105F05BF9062001
:101E500005F058FD60B1014649F2E640C0F60000C9
:101E6000FEF78CFA00F048FB00F094F819B0F0BDD2
:101E700049F22A50C0F60000FEF780FA00F03CFB61
:101E800000F088F819B0F0BD20204661696C202070
:101E9000203A20534843495F43325F424C455F49F3
:101EA0006E697420636F6D6D616E642C2072657352
:101EB000756C743A203078253032780A0D000000B5
:101EC0002020537563636573733A20534843495F19
:101ED00043325F424C455F496E697420636F6D6D9C
:101EE000616E640A0D000000202053756363657302
:101EF000733A206863695F726573657420636F6D00
:101F00006D616E640000000054454D504C415445D5
:101F10000000000010B540F24C24C2F2000420780A
:101F2000052808BF10BD05F08DFB0021217028B1E8
:101F300006A0BDE81040FEF721BA00BF0CA0FEF7D6
:101F40001DFA0DA0BDE81040FEF718BA2A2A20534A
:101F5000544F50204144564552544953494E47200E
:101F60002A2A20204661696C6564200D0A0D000054
:101F700020200D0A0D0000002A2A2053544F502023
:101F80004144564552544953494E47202A2A20205D
:101F90000D0A0D0080B588B040F24C20C2F200005E
:101FA000012101704FF0000C00208021A0220023AD
:101FB000CDE900CCCDE902CCCDE904CCCDF818C0F8
:101FC00005F0CAFA20B101460FA0FEF7D7F902E0EA
:101FD0001BA0FEF757FB40F22C01C2F200010C20BF
:101FE00005F050FB50B1014649F2B340C0F6000085
:101FF00008B0BDE88040FEF7C1B900BF1AA008B024
:10200000BDE88040FEF7BAB93D3D3E3E20616369C0
:102010005F6761705F7365745F646973636F766532
:102020007261626C65202D206661696C2C2072657E
:1020300073756C743A2030782578200A000000000F
:102040003D3D3E3E206163695F6761705F7365740B
:102050005F646973636F76657261626C65202D20C1
:1020600053756363657373003D3D3E3E2053756356
:10207000636573733A20537461727420466173749C
:10208000204164766572746973696E67200A0D0079
:1020900070470000012805D0002818BF70470320B2
:1020A00005F01CB8032005F059B8000010B504462F
:1020B0004068083004F0D4F8002818BF01202070D0
:1020C00010BD00007047000070470000FEE70000F0
:1020D000704700002DE9F04F83B09946044603890C
:1020E0004069D4F810C090460F4678B173B9D4E96E
:1020F00000160CF10102961B11F80C5038BF164661
:10210000895D45EA012101F1020B03E083460028C5
:1021100018BF9B46E168002B18BF98468C4509D232
:10212000B3FA83F1490908EB410A4D000AFB09F1B2
:1021300000230EE0B3FA83F14A0961681CFA8BF3BD
:1021400008EB420ACB1A0AFB09F199424FEA420511
:1021500012D3B3FBFAF202FB1A32D3B2AB420BD961
:10216000267FB2074FBF2B4606F0010252421340B2
:10217000B8F1000F04D108E00023B8F1000F04D03B
:102180000A1861681A448A4204D9002003B0BDE8E5
:10219000F08F00BFB9F1000F00F0AE804FEA1821B8
:1021A0000022019502911FE020682A460844394622
:1021B000FEF77EFA6069A8EB0506284460610021FD
:1021C000D34646B12068324608447919FEF770FAC2
:1021D000606930446061A16947440131B9F1010986
:1021E0002A46A16100F084802169636811FA8BF6A8
:1021F0002589F11A38BF314621619DB920684B1CF1
:1022000000F80180D4E90010181A38BF1846029B64
:10221000461C0B5463686069F11A00F1020038BF74
:10222000314660615B1A4345454638BF1D469845B7
:10223000BAD9237F002BB7D035B3DE0726D19B0751
:102240002DD520890028A0D120682A0A084400F84A
:10225000025C2068084400F8012C20682A460844E3
:102260003946FEF725FAD4E9051220682944A8EB7F
:1022700005030132C4E9051203702068190A417090
:1022800060690221023007E01546A4E722898AB17D
:1022900028440021434600252A461D466061019BD3
:1022A0002E4605EB030B002315462361002E7FF419
:1022B00089AF90E72068FF22084400F8022C2068CC
:1022C000084400F8012C606921892844606119B133
:1022D000002145460022E2E72068029980F800804C
:1022E0002068002541706069022102304346D3E72F
:1022F0006168D4F810C0019D20680CEB0502511AEA
:1023000038BF1146084403B0BDE8F08F80B5DDF852
:1023100008E084460020CCE90300CCE905000EF07B
:102320000200CCE90012ACF80830002B18BF0123E2
:1023300003EA500040428CF81CE080BDF0B5D0F8B4
:1023400014C0BCF1000F15D002891346B2B1057F4D
:1023500005F00305012D22D14FF6FF75AB423FD1A9
:10236000002A53D0D0E903E4A6453FD84FF6FF73C7
:1023700017E000BF002200232DE000BFC568D0E9B0
:10238000003413F805E001352C1B38BF2C461B5DCB
:102390004EEA0323057F05F00305012DDCD0D0F8BC
:1023A0000CE0B2FA82F25509D0E900640EEB450266
:1023B000171B38BF174603EB4505F219BCEB0507A1
:1023C000476105D005EB0E073E1B38BF3E46C66091
:1023D0008769013F87611046002918BF0B80F0BD57
:1023E000D0E903E4A645DCD9002ADAD04468A4EB9E
:1023F0000E059542D5D2ACEB040303EB0E0C4FF067
:10240000000EC0F80CE01346CBE700BFD0E9003463
:10241000D0F80CE0ACEB040505EB0E0C4FF0000E11
:10242000C0F814C0C0F80CE0C4F101061D78012CFE
:1024300088BF01269B5D45EA0323B2E770B5426978
:1024400052B10289C368944672B1067F06F0030652
:10245000012E43D11AE000BF00204FF0000C0029EC
:1024600018BFA1F800C070BDD0E900CE5D1CB5EB6F
:102470000E041CF8036038BF2C461CF8045046EAD2
:10248000052C067F06F00306012E27D14FF6FF76B6
:102490001FFA8CF5B54205D00669B3421ED92AB998
:1024A0001CE000BF52B10669B34215D94668F61A5E
:1024B00096423CBF9446002310E000BFD0E90036AE
:1024C000C6F101041D78012E88BF01241B5D45EA79
:1024D000032C002302E000BF4FF6FF7C002A08BF58
:1024E0000233D0E900029A1A38BF1A461044002974
:1024F00018BFA1F800C070BD704700007047000011
:10250000002070477047000041F23440C2F20000E2
:1025100000F0E4B841F29440C2F2000000F0DEB8EE
:102520007047000003F0AEB913460A46014600208A
:1025300003F078B880B582B0FFF7F4FF40F20430C2
:1025400040F224314FF0020CC2F20000C2F200014E
:102550004FF480520023CDF800C0FFF7D7FE02B041
:1025600080BD000070B582B040F20434EFF31086F5
:10257000EFF3108072B6C2F200040DF1060520469A
:102580002946FFF7DBFE20462946FFF757FF58B1E3
:1025900086F31088BDF8061042F26552C0F60002BC
:1025A000FFF7C2FF02B070BD40F22400C2F200008B
:1025B0000121017086F3108802B070BD70470000E1
:1025C00070470000EFF3108072B600BFFEE7000016
:1025D00042F20400CEF20400016841F00101016002
:1025E0007047000042F20400CEF20400016841F09E
:1025F0000201016070470000002804BF01207047FD
:1026000080B590F82510022926D10168D0E910CEB6
:10261000826C0B6823F00E030B60136823F4807345
:1026200013600A6822F001020A600EF01C02012108
:1026300001FA02F2CCF80420D0E913325A60426D5C
:1026400032B1136823F480731360D0E9162353600A
:1026500080F82510002102E00421C163012100223D
:1026600080F82420BDE880400846704780B590F887
:10267000251002292ED10168D0E910CE826C0B689A
:1026800023F00E030B600B6823F001030B6011684D
:1026900021F4807111600EF01C02012101FA02F296
:1026A000CCF80420D0E913325A60426D32B113687D
:1026B00023F480731360D0E91623536080F825104B
:1026C000826B002180F824100AB19047002108464F
:1026D00080BD00BF0421C163012080BDB0B5D0E939
:1026E00010C30268DCF8001003F01C030424D2F8C5
:1026F00000E09C400C4218BF1EF0040522D10224C9
:102700009C400C4218BF1EF0020529D1D940090790
:1027100024D51EF0080108BFB0BD116821F00E01DC
:102720001160012101FA03F2CCF80420C16380F8A2
:102730002510416B002280F8242079B1BDE8B0401B
:10274000084700BF1168890603D4116821F004010D
:102750001160CCF80440016B0029EFD1B0BD00BF7F
:102760001168890606D4116821F00A01116001215F
:1027700080F82510CCF80440C16A0022002980F8B6
:102780002420DBD1EAE700002DE9F04F00284FF0CC
:10279000010800F08B800027C4F2020702684FF6A0
:1027A000F83407F58169CBF6FD744A4538BF04F566
:1027B00080644CF6CD4E1444CCF6CC4EA4FB0E51A6
:1027C00002F0FC05A5F1080540F68406A5FB0E5AAB
:1027D000C4F2020607F580636FF00304D0E9025CDF
:1027E000D0F810B03CBF0023C4F20203683E04EAF4
:1027F00091044A4538BF07F50066C0E9103402234A
:1028000080F82530136847F6F077BB43D0E90571AF
:1028100043EA0C0343EA0B03D0E9079E3B43194309
:1028200041EA090140F6840C41EA0E01C4F2020CAF
:1028300029431160ACF10401C164CAF304113219D7
:1028400008FA01F3B5F5804F8264036506D10021D3
:1028500041601160CCF800301AE000BF416801F01F
:102860003F04013903294FF000011460CCF8003017
:102870000ED8621E0CEB820747F87C1F02F00301A2
:1028800001228A400CF1BC033946CCF8C02001E09B
:1028900000230022C0E915134FF000080121C26592
:1028A000C0F83C8080F8251080F824804046BDE8C0
:1028B000F08F00002DE9F04190F824C0BCF1010F29
:1028C00043D04FF0010C80F824C090F825C0BCF133
:1028D000010F37D14FF0020C80F825C04FF0000CEB
:1028E000C0F83CC0D0F800C000F14C0E9EE830406B
:1028F000DCF80060BEF1000F26F00106CCF80060A5
:1029000065601CBFD0E916456560D0E910760125E9
:1029100006F01C068468B540D0F830807D60CCF8A5
:1029200004300B46102C04BF13460A46CCF808307E
:10293000CCF80C20DCF80010B8F1000F08D041F002
:102940000E010DE0002180F824100220BDE8F08186
:1029500021F00401CCF80010DCF8001041F00A016D
:10296000CCF80010806C0168C90303D5016841F4FC
:1029700080710160BEF1000F05D0DEF8000040F468
:102980008070CEF80000DCF8000040F00100CCF8C8
:1029900000000020BDE8F0812DE9F04F81B00E6805
:1029A000002E00F0BB8041F2000500F13843C4F670
:1029B000000507224FEAB327A84208BF0422042FCC
:1029C00038BF4FEAB322002300250024009209E01B
:1029D0000E68013436FA04F205F1040503F102032E
:1029E00000F09C80012202FA04FA16EA0A0EEFD0E7
:1029F000D1F80480032208F00309A9F1010702FAC3
:102A000003FB012F6FEA0B0C12D8D0F808B0CA688C
:102A10000BEA0C0B9A4042EA0B028260426822EAFF
:102A20000A0AC8F30012A24042EA0A02426005E024
:102A3000B9F1030F02D14FF0030922E0C2688F6899
:102A400002EA0C029F403A43B9F1020FC26018D16A
:102A50006FF0030202EA54020244D2F8208005F02B
:102A60001C070F26D1F810A006FA07F928EA090872
:102A70000AFA07F747EA08071762D1F8048008F056
:102A80000309026809FA03F702EA0C023A4318F450
:102A9000403F02609CD040F2080824F00302C4F2D8
:102AA000010852F808C005F00C070F26BE402CEABA
:102AB000060C009E06FA07F747EA0C0742F8087072
:102AC00040F60008C5F60008D8F800C04F684CEA88
:102AD0000E06FA0258BF2CEA0E06C8F80060D8F8B5
:102AE00004C0BA024CEA0E0658BF2CEA0E06C8F81B
:102AF0000460D8F880C0FA034CEA0E0658BF2CEAEE
:102B00000E06C8F88060D8F88420BF0342EA0E069B
:102B100058BF22EA0E06C8F8846059E701B0BDE844
:102B2000F08F00001823002A08BF2823C1507047E7
:102B300041F67C00C2F200000068704740F21400C9
:102B4000C2F20000406870477047000041F2005137
:102B5000C5F60001C8680A6882430A604860FFF74A
:102B6000F3BF0000002804BF0120704710B50446E1
:102B700090F8380010B9204600F028F840F60041DF
:102B8000C5F6000100204FF03F1208604A603F2266
:102B90008A600A6842F001120A6042F61D41C0F6DE
:102BA000000142F62142C0F60002C4E90111C4E965
:102BB0000311C4E905110121C4E90722C4E909226E
:102BC000C4E90B22606384F8381010BD80B582B070
:102BD0005021C5F60001006801F53B6290421CBF20
:102BE00002B080BD0868002240F4801008600868C8
:102BF000002100F48010019001982C2000F0CAF808
:102C00002C2000F09FF82D200021002200F0C2F8B7
:102C10002D2002B0BDE8804000F094B8704700005D
:102C20007047000040F2140041F67C01C2F200003F
:102C3000C2F2000100780A68104408607047000082
:102C400080B544F20000C5F60000016841F48071CF
:102C50000160032000F0CAF8002000F009F8002805
:102C60001CBF012080BD00F027F8002080BD0000BF
:102C700070B540F21406C2F200063178D1B10446B4
:102C800000F014FD31784FF47A72B2FBF1F1B0FB31
:102C9000F1F001F077FB0F2C4FF0010508D838B99F
:102CA0004FF0FF3021460022002500F073F87460D9
:102CB000284670BD012070BD80B582B05020C5F699
:102CC00000000168002241F4002101600068002139
:102CD00000F40020019001982E2000F05BF82E20D7
:102CE00002B0BDE8804000F02DB80000002848BFC9
:102CF0007047C1B200F01F00012202FA00F04EF24C
:102D00008022CEF2000242EAD10121F003010860E4
:102D100070470000002848BF7047C1B200F01F0094
:102D2000012202FA00F04EF28012CEF2000242EAD4
:102D3000D10121F003010860BFF34F8FBFF36F8F04
:102D400070470000002848BF7047C1B200F01F0064
:102D5000012202FA00F04EF20012CEF2000242EA24
:102D6000D10121F00301086070470000002848BF2E
:102D70007047C1B200F01F00012202FA00F04EF2CB
:102D80000022CEF2000242EAD10121F003010860E4
:102D90007047000010B54EF60C5CCEF2000CDCF86B
:102DA0000030C3F3022E8EF00704042C28BF042445
:102DB000BEF103034FF0FF3E0EFA04F438BF0023C8
:102DC000A14399400EFA03F39A43114300F00F0216
:102DD00000F160430901043A03F5644362440028AA
:102DE00048BF02F10C03197010BD00004EF60C51E3
:102DF000CEF200010A684FF6FF031A4060F30A2280
:102E000042F0806040F0FD70086070470122016868
:102E1000C0F8E822002280F8E022B1F8540040F027
:102E20000100A1F85400B1F8540040F00202002063
:102E3000A1F8542070470000F0B585B0002859D0A3
:102E4000054690F8A90228B9002085F8A80228466E
:102E500000F054F8032085F8A902286804F00EF960
:102E6000696859B300204FF0010C0022002300BF15
:102E700002EB820205EBC20484F828300133DAB297
:102E8000914284F829C084F82B00C4E90E00206424
:102E9000EED800200023002203EB830305EBC304DC
:102EA00084F868210132D3B2994284F8690184F828
:102EB0006B01C4E95E00C4F88001EDD805F1080E8D
:102EC00028689EE81C50D5E907678DE81050CDE9C9
:102ED000036704F0C5F80020012185F8240085F877
:102EE000A912E969012903D12846FFF78FFF0020C5
:102EF00005B0F0BD012005B0F0BD000010B59AB0DE
:102F00000446684618303821FDF71FFC206846F655
:102F10000001C4F20001884202D01AB010BD00BF07
:102F20004FF480700090182001904FF40030029010
:102F30004FF0007003904FF0005004904FF08070FD
:102F400005904FF080600D90684600F045F800282D
:102F500018BFFFF737FB4C24C5F60004206814A9FE
:102F600040F001002060206800F0010014901498E7
:102F70004FF4C0501490022015900020CDE91600A7
:102F80000A2018904FF09040FFF706FDE06840F0EF
:102F90008060E060E06800F08060199019981AB0D5
:102FA00010BD000040F20040C5F60000006800F4CB
:102FB000C060704740F20040C5F60000016841F46F
:102FC00080710160704700004FF0B040016841F02F
:102FD00004010160704700002DE9F04381B0044610
:102FE000007888274006C5F6000717D5206B6FF0DC
:102FF000010101EBB05102290BD34FEAB051002976
:103000004CD0012960D157F87C1C41F4803147F83D
:103010007C1C396821F44001084338604FF00009F6
:10302000607800072AD5B868216C00F440758D429D
:1030300024D0FFF7BFFF002D4AD0B868B96820F44C
:10304000407041F48031B960B96821F48031B960D1
:10305000216C0843B860B868C0070FD0FFF768FD5F
:10306000064641F2893500BFB868800706D4FFF7ED
:103070005FFD801BA842F7D34FF003092068C1070A
:103080002FD1810735D4C1063BD4810645D44107F1
:103090004FD401075BD4C00567D4B6E04FF0B0460B
:1030A000306820F080603060FFF742FD054600BFC9
:1030B0003068000140F12C81FFF73AFD401B0228E7
:1030C000F6D94FF00309ABE74FF00109A8E700BFBD
:1030D000206CB96821F440710843B8602068C107CA
:1030E000CFD0A1693A6822F0030211433960810709
:1030F000C9D5E1693A6822F4406211433960C106DA
:10310000C3D5A16A3A684FF6FF7363EA01031A4018
:1031100042EA014139608106B9D5E16A3A684FF661
:10312000FF7363EA01031A4042EA01413960410733
:10313000AFD5216A3A686FF47F2363EA11131A400E
:1031400001F47F4142EA011139600107A3D5616AA8
:103150003A686FF47F2363EA11131A4001F47F4148
:1031600042EA01113960C0054FD5606B3968B0F192
:10317000806F21F0406141EA000139600CD0B0F16C
:10318000006F42D157F87C0C40F0807047F87C0CFF
:103190002068810560D53BE04FF0B045286820F0FD
:1031A00080602860FFF7C4FC064600BF2868000165
:1031B00006D5FFF7BDFC801B0228F7D923E000BF2E
:1031C00057F8780C616820F4FE4040EA0120E2687C
:1031D00047F8780C57F8780C4FF0B04520F0606055
:1031E000104347F8780C286840F080602860FFF7AB
:1031F0009FFC06462868000100F1B280FFF798FCAA
:10320000801B0228F6D94FF003092068810523D5D9
:10321000A16B6FF04042B1F1004F0DD061B1B1F13F
:10322000804F0B4609D03A6821F0805322F040428B
:103230003A606FF0406200E00B463E68B1F1C05F5B
:1032400002EA060242EA03023A6005D157F87C1C02
:1032500041F0807147F87C1C40054FD5E06B396820
:10326000B0F1805F21F0405141EA000139600DD09A
:10327000B0F1005F42D157F87C0C40F4803047F841
:103280007C0C2068C10400F180803AE04FF0B0452A
:10329000286820F080602860FFF74AFC064600BFDF
:1032A0002868000106D5FFF743FC801B0228F7D9E8
:1032B00022E000BF57F8780C616820F4FE4040EA35
:1032C0000120226947F8780C57F8780C4FF0B04588
:1032D00020F06040104347F8780C286840F0806088
:1032E0002860FFF725FC06462868000144D4FFF754
:1032F0001FFC801B0228F7D94FF003092068C10486
:1033000043D4800449D4484601B0BDE8F08300BFEF
:1033100057F8780CD4E9011220F4FE4040EA01206D
:1033200047F8780C57F8780C4FF0B04820F4781034
:10333000104347F8780CD8F8000040F08060C8F8D7
:103340000000FFF7F5FB06464FF00309D8F8000030
:10335000000137D4FFF7ECFB801B0228F6D95FE6AB
:10336000606957F8781C084347F8780C2068810595
:103370007FF572AF4CE700BF606957F8781C0843CF
:1033800047F8780C2068C104BBD5616CFA6822F458
:1033900040421143F9608004B5D5D4E9120157F8D1
:1033A000642C22F03002114347F8641C57F8641C67
:1033B00021F00301084347F8640C484601B0BDE81A
:1033C000F08300BF57F8781C6269206B114347F8FF
:1033D000781C1EE62DE9F04381B0002800F0CB8078
:1033E00044F20008C5F600080546D8F800000C466F
:1033F00000F00700884215D2D8F8000020F007003E
:103400002043C8F80000FFF793FB0646D8F80000F9
:1034100000F00700A04205D0FFF78AFB801B0228BE
:10342000F4D977E0286808278107C5F6000714D586
:10343000A868396821F0F00108433860FFF778FB8D
:10344000064600BF3868C00306D4FFF771FB801B37
:103450000228F7D95EE000BF2868810615D56869A3
:10346000D7F8001121F0F0010843C7F80001FFF779
:103470005FFB0646D7F80001800305D4FFF758FB31
:10348000801B0228F6D945E02868410617D5A869AF
:10349000D7F8001121F00F0141EA1010C7F8000120
:1034A000FFF746FB064600BFD7F80001C00305D46E
:1034B000FFF73EFB801B0228F6D92BE02868410766
:1034C00013D5E868396821F4E06108433860FFF7F4
:1034D0002FFB06463868800306D4FFF729FB801BC4
:1034E0000228F7D916E000BF2868010717D5286918
:1034F000396821F4605141EAC0003860FFF718FBD9
:10350000064600BF3868400308D4FFF711FB801B54
:103510000228F7D9032001B0BDE8F0832868C0076E
:103520001ED1D8F8000000F00700A04228D9D8F832
:10353000000020F007002043C8F80000FFF7F8FA69
:10354000054600BFD8F8000000F00700A04217D0E1
:10355000FFF7EEFA401B02284FF00300F2D947E0D4
:1035600068684FF0B04138B3032845D0022847D1EE
:103570000968890323D4012001B0BDE8F08300BFAE
:10358000386800F00C0142F200400829C0F2F40053
:103590003AD0042972D0002940D14FF0B0400068E1
:1035A00048F6204100F0F000B02828BFB020800885
:1035B000C0F60001085861E009688907DBD5396861
:1035C00021F0030108433860FFF7B2FA064641F2E2
:1035D000883900BF3868696800F00C00B0EB810FD3
:1035E0009FD0FFF7A5FA801B48454FF00300F1D9A3
:1035F00001B0BDE8F08300BF09688901BBD5DEE7F3
:1036000009684905B7D5DAE74FF0B0410968C90242
:103610005CBF44F60000C0F2E8102FE0796801F0CA
:10362000030102291AD003290AD14FF0B0410968D9
:10363000C9025CBF44F60000C0F2E8100EE000BF13
:103640004FF0B040006848F6204100F0F000B0288C
:1036500028BFB0208008C0F60001085879687A6851
:10366000C1F306214843C2F302110131B0FBF1F06E
:103670007968012202EB5171B0FBF1F039683C220C
:1036800002EA910148F6C032C0F600025158B0FB80
:10369000F1F040F22801C2F200010860FFF74EFA93
:1036A00001B0BDE8F043FFF7E3BA00000C20C5F617
:1036B000000050F8041C01F00C0242F20041082AFC
:1036C000C0F2F40112D0042A4AD0CAB94FF0B04176
:1036D000096848F6204201F0F001B02928BFB02166
:1036E0008908C0F6000251583AE000BF4FF0B042DE
:1036F0001268D2025CBF44F60001C0F2E8112FE06C
:10370000026802F00302022A1AD0032A0AD14FF0FB
:10371000B0421268D2025CBF44F60001C0F2E81168
:103720000EE000BF4FF0B041096848F6204201F0BA
:10373000F001B02928BFB0218908C0F60002515815
:1037400002680368C2F306225143C3F30212013236
:10375000B1FBF2F10268012303EB5272B1FBF2F10B
:1037600050F8040C3C2202EA900048F6C032C0F641
:1037700000021058B1FBF0F0704700000C20C5F6B5
:10378000000050F8041C01F00C0242F20041082A2B
:10379000C0F2F40112D0042A4AD0CAB94FF0B041A5
:1037A000096848F6204201F0F001B02928BFB02195
:1037B0008908C0F6000251583AE000BF4FF0B0420D
:1037C0001268D2025CBF44F60001C0F2E8112FE09B
:1037D000026802F00302022A1AD0032A0AD14FF02B
:1037E000B0421268D2025CBF44F60001C0F2E81198
:1037F0000EE000BF4FF0B041096848F6204201F0EA
:10380000F001B02928BFB0218908C0F60002515844
:1038100002680368C2F306225143C3F30212013265
:10382000B1FBF2F10268012303EB5272B1FBF2F13A
:1038300050F8042C3C2303EA920248F6C033C0F649
:10384000000350F8040C9A5848F60043C0F30220D5
:10385000C0F6000353F82000B1FBF2F100F01F00A6
:1038600021FA00F0704700000C20C5F6000050F867
:10387000041C01F00C0242F20041082AC0F2F401DB
:1038800012D0042A4AD0CAB94FF0B041096848F6AC
:10389000204201F0F001B02928BFB0218908C0F60C
:1038A000000251583AE000BF4FF0B0421268D20215
:1038B0005CBF44F60001C0F2E8112FE0026802F09C
:1038C0000302022A1AD0032A0AD14FF0B04212682A
:1038D000D2025CBF44F60001C0F2E8110EE000BF66
:1038E0004FF0B041096848F6204201F0F001B029DC
:1038F00028BFB0218908C0F6000251580268036849
:10390000C2F306225143C3F302120132B1FBF2F1BA
:103910000268012303EB5272B1FBF2F150F8042C60
:103920003C2303EA920248F6C033C0F6000350F885
:10393000040C9A5848F60043C0F3C220C0F60003B6
:1039400053F82000B1FBF2F100F01F0021FA00F063
:10395000704700000C21C5F6000151F8040C00F07E
:103960000C0242F20040082AC0F2F40024D0042ADB
:1039700008BF704772B94FF0B040006848F6204168
:1039800000F0F000B02828BFB0208008C0F6000189
:10399000085870470A6802F00302022A24D0032A5A
:1039A00014D14FF0B0421268D2025CBF44F600005E
:1039B000C0F2E81018E000BF4FF0B0410968C9023A
:1039C0005CBF44F60000C0F2E81070474FF0B04012
:1039D000006848F6204200F0F000B02828BFB02070
:1039E0008008C0F6000210580A680B68C2F306226D
:1039F0005043C3F3021201320968B0FBF2F0012216
:103A000002EB5171B0FBF1F070470000F0B581B0EE
:103A1000002800F055830446007894268006C5F6F9
:103A2000000659D42078C00713D056F88C0C00F04B
:103A30000C0156F8880C082907D00C2940F0E080CA
:103A400000F00300032840F0DB806068002800F0ED
:103A50003783207880071CD556F88C0C00F00C01B9
:103A600056F8880C042907D00C2940F0EB8000F0B0
:103A70000300022840F0E680E068002800F0208380
:103A8000206956F8901C21F0FE4141EA006046F89A
:103A9000900C216811F0180F00F07C816269306889
:103AA000002A00F09B8011F0100140F0B58040F03A
:103AB00001003060FFF73CF8054600BF3068800722
:103AC00000F12681FFF734F8401B02284FF0030075
:103AD000F4D901B0F0BD00BF56F88C0C10F00C0109
:103AE00056F8880C05D00C292AD100F003000128D3
:103AF00026D1E069002800F0E3824FF0B041606A0F
:103B00000A6802F0F002B02A28BFB022904231D9F0
:103B100001F056FF002840F0D3824FF0B042D4E9C4
:103B20000801136823F0F0031943116056F8901C44
:103B300021F47F4141EA002046F8900C2DE000BFBF
:103B4000E1694FF0B0473868002900F0958040F0F7
:103B500001003860FEF7ECFF054600BF38688007BB
:103B600000F1B080FEF7E4FF401B02284FF0030095
:103B7000F4D9AEE70A6822F0F00202430A60216A33
:103B800056F8902C22F47F4242EA012146F8901C1C
:103B900001F016FF002840F0938256F88C0C00F0DC
:103BA0000C0142F200400829C0F2F40000F000824B
:103BB000042900F06A82002940F004824FF0B040EE
:103BC000006848F6204100F0F000B02828BFB0207F
:103BD0008008C0F60001085857E200BF20F004003A
:103BE0003060FEF7A5FF05463068000740F17C8095
:103BF000FEF79EFF401B03284FF00300F4D968E74F
:103C000061684FF0B0400268B1F5803F40F09080AD
:103C100042F48031016091E080073FD4306840F089
:103C200001003060FEF784FF054600BF3068800762
:103C300034D4FEF77DFF401B02284FF00300F5D976
:103C400047E700BFE1684FF0B0473868002900F04F
:103C50009D8140F480703860FEF76AFF054600BF22
:103C6000386840053FF50CAFFEF762FF401B0228A5
:103C70004FF00300F4D92CE720F001003860FEF784
:103C800057FF0546386880077FF5CCAEFEF750FF3A
:103C9000401B02284FF00300F4D91AE7306840F0C7
:103CA00004003060FEF744FF054600BF306800079F
:103CB00056D4FEF73DFF401B03284FF00300F5D913
:103CC00007E700BF4FF0B042D4E90801136823F0C2
:103CD000F0031943116056F8901C21F47F4141EA2A
:103CE000002046F8900C9DE6306820F0010030601E
:103CF000FEF71EFF054600BF306880074AD5FEF775
:103D000017FF401B02284FF00300F5D9E1E600BF82
:103D1000306820F004003060306800073AD5FEF7C4
:103D200007FF401B03284FF00300F5D9D1E600BF81
:103D300022F480320029026000F05681FEF7F8FE7E
:103D400005464FF0B04700BF386880033FF581AEAD
:103D5000FEF7EEFE401B64284FF00300F4D9B8E6EE
:103D6000A069316821F4706141EA00203060306858
:103D700020F001003060FEF7DBFE0546306880076A
:103D800008D5FEF7D5FE401B02284FF00300F5D9F9
:103D90009FE600BF2078400752D42078400677D4B1
:103DA000E06A002800F0C08156F88C2C56F8881C78
:103DB000022802F00C0040F08180226B01F0030326
:103DC000934240F09380626B01F07003934240F0A5
:103DD0008D80A26BC1F30623934240F08780E26B93
:103DE00001F47813934240F08180226C01F060630B
:103DF000934240F07B80626C01F06041914275D14A
:103E00004FF0B0452868800100F18E81286840F0AD
:103E10008070286056F8880C40F0805046F8880C76
:103E2000FEF786FE04462868800100F17D81FEF7DA
:103E30007FFE001B02284FF00300F4D949E600BFC3
:103E4000D6F86C03C00511D4FFF7B4F8FEF770FE86
:103E5000054600BFD6F86C03C00507D4FEF768FE20
:103E6000401B02284FF00300F4D932E6A068012875
:103E700007D0052868D156F8040C40F0040046F835
:103E8000040C56F8040C40F0010046F8040C69E0FC
:103E9000A16A7068002945D040F001007060FEF70B
:103EA00047FE0546706880073FF57AAFFEF740FE93
:103EB000401B02284FF00300F4D90AE60C2800F05A
:103EC000FF804FF0B045286820F080702860FEF732
:103ED0002FFE04462868800140F1AA80FEF728FEE4
:103EE000001B02284FF00300F4D9F2E50C2800F083
:103EF000E7804FF0B0473868400100F1E180386852
:103F000020F080703860FEF713FE054638688001A7
:103F100040F1DA80FEF70CFE401B02284FF0030050
:103F2000F4D9D6E520F001007060FEF701FE0546E9
:103F3000706880077FF534AFFEF7FAFD401B02285A
:103F40004FF00300F4D9C4E556F8041C002821F012
:103F5000010146F8041C56F8041C21F0040146F83F
:103F6000041C53D0FEF7E4FD054641F2883700BF3C
:103F700056F8040C80073FF510AFFEF7D9FD401B43
:103F8000B8424FF00300F3D9A3E500BF20F48070DE
:103F90003860FEF7CDFD0546386840057FF579AD00
:103FA000FEF7C6FD401B02284FF00300F4D990E550
:103FB0004FF0B0410968C9025CBF44F60000C0F28E
:103FC000E81062E056F8881C01F00301022949D08C
:103FD000032939D14FF0B0410968C9025CBF44F6EA
:103FE0000000C0F2E8103DE0FEF7A2FD05464FF0EC
:103FF000B047386880037FF52CADFEF799FD401B74
:1040000064284FF00300F4D963E500BFFEF790FD8C
:10401000054641F2883756F8040C80077FF5BDAE9F
:10402000FEF786FD401BB8424FF00300F3D950E580
:1040300056F8880C4FF6FC71CEF6FE61084046F843
:10404000880C002001B0F0BD4FF0B040006848F689
:10405000204100F0F000B02828BFB0208008C0F652
:104060000001085856F8881C56F8882CC1F3062120
:104070004843C2F302110131B0FBF1F056F8881C3D
:10408000012202EB5171B0FBF1F056F88C1C3C227E
:1040900002EA910148F6C032C0F60002515840F2DF
:1040A0002802B0FBF1F140F21800C2F200000068F3
:1040B000C2F200021160FEF7DBFD00283FF4B2AC53
:1040C000012001B0F0BD00BF56F8880C48F28C0109
:1040D000C1F2C11104F1300708408ECFD4E9105469
:1040E0000843104340EA032038432843204346F85E
:1040F000880C4FF0B045286840F08070286056F872
:10410000880C40F0805046F8880CFEF711FD0446FC
:104110002868800108D4FEF70BFD001B02284FF031
:104120000300F5D9D5E400BF002001B0F0BD0000C8
:10413000F0B581B0044690F8200001284FF002004D
:1041400061D00E46012184F8201084F821002068F7
:10415000CA2141625321416281681546490519D43B
:10416000816821F480618160C16861F4906121F40B
:104170008061C160FEF7DCFC074600BF2168C868AB
:10418000400719D4FEF7D4FCC01BB0F57A7FF5D9EF
:104190000EE000BFFEF7CCFC074600BF2068C168F8
:1041A0004907DDD5FEF7C4FCC01BB0F57A7FF5D911
:1041B0002168032203201FE04E61886820F0070079
:1041C000886088682843886040F60000C5F60000D3
:1041D000D0F8802042F40022C0F88020026842F427
:1041E000002202608868012240F48040886088686C
:1041F00040F4806088600020FF234B62002184F837
:10420000212084F8201001B0F0BD0000B0B588B3C3
:10421000044690F8210028B9002084F820002046A8
:1042200000F076F8022084F8210042F60C00C4F277
:1042300000000068C00665D42068CA21416253218D
:104240004162C168490617D44FF0FF31C160FEF7E3
:104250006FFC05462068C16849060DD4FEF768FC6E
:10426000401BB0F57A7FF5D92068FF214162042018
:1042700084F821000120B0BD81684FF6BF72CFF6EF
:104280008F7211408160D4E9011CD4E903531943B2
:10429000A36982681943114381600561016941EA9C
:1042A0000C410161C16821F08001C160C16C21F045
:1042B0000301C164E1696269C36C11431943C164BC
:1042C000816889061CD4C16821F0A001C160FEF795
:1042D0002FFC05462068C168890611D4FEF728FC2A
:1042E000401BB0F57A7FF5D92068FF214162042098
:1042F00084F82100002084F820000120B0BD00BF18
:10430000FF214162012084F821000020B0BD00009F
:1043100010B596B0044601A804304C21FCF715FAFC
:10432000206842F60001C4F20001884202D016B0B3
:1043300010BD00BF4FF4006001904FF480701190E9
:1043400001A8FEF749FE002818BFFEF73BF95820E8
:10435000C5F60000816B002241F4004181630168D1
:1043600041F4806101600068002100F480601590D4
:1043700015980320FEF70EFD0320FEF7E3FC16B0B0
:1043800010BD0000411E0020B0EB116F1CBF0120CA
:1043900070474EF21002CEF2000251604EF62351E9
:1043A000CEF20001F0230B7007219060116070477E
:1043B00090F88410012904BF022070472421C0F81E
:1043C000881002681168136823F00103136021F05C
:1043D00000530021416613602022C0F8882080F835
:1043E00084100846704700007047000070470000C6
:1043F000B0B590F88420012A04BF0220B0BD242269
:10440000C0F888200268D0F864E0D2F800C01368D1
:10441000BEF1000F23F001031360936823F0606383
:1044200041EA0301916019D09368916848F6DE5E15
:10443000490FC0F6000E48F6E6551EF80140C0F6DA
:104440000005695CC3F34263E400B4FBF1F11EF8BC
:104450000340EB5CE500B5FBF3F301E00121012330
:10446000A0F86A102021A0F86830C2F800C0C0F897
:104470008810002180F884100846B0BDB0B590F8CF
:104480008420012A04BF0220B0BD2422C0F8882065
:104490000268D0F864E0D2F800C01368BEF1000FE3
:1044A00023F001031360936823F0604341EA0301A2
:1044B000916019D09368916848F6DE5E490FC0F6A6
:1044C000000E48F6E6551EF80140C0F60005695C8E
:1044D000C3F34263E400B4FBF1F11EF80340EB5C6C
:1044E000E500B5FBF3F301E001210123A0F86A1018
:1044F0002021A0F86830C2F800C0C0F88810002160
:1045000080F884100846B0BD704700007047000076
:104510007047000070B5016840F62F03CA69044671
:1045200008688E681340202B0CD100F0200306F0A1
:1045300080555B1917D0616F00297BD02046BDE8FC
:104540007040084740F60F031A420CD00123C1F215
:10455000000306EA030C40F22013C0F200430340BC
:1045600013EB0C0368D1E36E012B05D112F010039D
:1045700018BF10F010034DD1D3020BD516F48003F1
:1045800008D04FF4801220460A62BDE87040FFF761
:10459000BDBF00BF110606D500F0800106F4000380
:1045A000C91840F03582510640F10E8110F04001EB
:1045B00000F00A81206850E8000F216820F04000D8
:1045C00041E80002DAB1206850E8000F216820F0CD
:1045D000400041E8000292B1206850E8000F2168D5
:1045E00020F0400041E800024AB1206850E8000F86
:1045F000216820F0400041E80002002ADAD12020A2
:104600000021C4F888002046A167BDE8704000F092
:10461000BFBB00BF102008628868400618D4B4F8F9
:104620005C00B4F85E10B4F85E20002A18BF88421F
:1046300040F0068270BD00BFD30718BF10F480732E
:1046400040F0CE80930706F0010E00F1D580DEE049
:10465000D4F88000006841688AB2002AEAD0B4F831
:104660005C309A42E6D2A4F85E100068800600F141
:104670009E80206850E8000F216820F4807041E897
:104680000002DAB1206850E8000F216820F4807041
:1046900041E8000292B1206850E8000F216820F440
:1046A000807041E800024AB1206850E8000F21689C
:1046B00020F4807041E80002002ADAD1206850E836
:1046C000020F216820F0010041E80202BAB320681D
:1046D00050E8020F216820F0010041E8020272B3A5
:1046E000206850E8020F216820F0010041E8020232
:1046F0002AB3206850E8020F216820F0010041E849
:104700000202002ADAD11AE0206850E8020F21687C
:1047100020F0400041E80202DAB1206850E8020FC0
:10472000216820F0400041E8020292B1206850E880
:10473000020F216820F0400041E802024AB12068DF
:1047400050E8020F216820F0400041E80202002AF0
:10475000DAD12020C4F88C000020E066206850E800
:10476000000F216820F0100041E80002DAB1206853
:1047700050E8000F216820F0100041E8000292B1DB
:10478000206850E8000F216820F0100041E8000286
:104790004AB1206850E8000F216820F0100041E87D
:1047A0000002002ADAD1D4F88000FDF725FF0220AC
:1047B0002067B4F85C00B4F85E10401A81B220465D
:1047C000BDE87040FFF710BE110240F1278110F0E4
:1047D000804100F023812046BDE87040FFF794BE81
:1047E00001230B62D4F8903043F00103C4F89030F9
:1047F000930706F0010E0AD5BEF1000F07D0022381
:104800000B62D4F8903043F00403C4F8903053079F
:104810000AD5BEF1000F07D004230B62D4F8903004
:1048200043F00203C4F8903013070CD500F02003C6
:1048300053EA0C0307D008230B62D4F8903043F0FE
:104840000803C4F8903013050BD510F0806308D02E
:104850004FF400630B62D4F8903043F02003C4F8A7
:104860009030D4F89030002B3FF4E4AE12F02002E8
:104870001EBF00F0200006F0805210EB020040F056
:104880006181D4F89000896800F0280001F04001AF
:10489000401807D12046FFF73BFE0020C4F89000E7
:1048A00070BD00BF206850E8000F216820F49070B0
:1048B00041E80002DAB1206850E8000F216820F4D6
:1048C000907041E8000292B1206850E8000F216822
:1048D00020F4907041E800024AB1206850E8000FCF
:1048E000216820F4907041E80002002ADAD14FF6E6
:1048F000FE70CEF6FF7000BF216851E8021F2268EB
:10490000014042E80213C3B1216851E8021F226846
:10491000014042E8021383B1216851E8021F226876
:10492000014042E8021343B1216851E8021F2268A6
:10493000014042E80213002BDED1E06E012824D1B1
:10494000206850E8000F216820F0100041E80002C4
:10495000DAB1206850E8000F216820F0100041E82B
:10496000000292B1206850E8000F216820F010008A
:1049700041E800024AB1206850E8000F216820F0A9
:10498000100041E80002002ADAD12020C4F88C008F
:104990000020E06621686067886840064AD500BF4D
:1049A000206850E8020F216820F0400041E8020230
:1049B000DAB1206850E8020F216820F0400041E899
:1049C000020292B1206850E8020F216820F04000F6
:1049D00041E802024AB1206850E8020F216820F045
:1049E000400041E80202002ADAD1D4F8800008B37E
:1049F00046F69901C0F600018163FDF737FE0028F5
:104A00003FF418AED4F88000816BBDE870400847D1
:104A1000A16F00297FF492AD0CE600BFD1017FF5B4
:104A200009AEB0F1FF3FC8BF70BD2046BDE8704081
:104A3000FFF7DCBC2046BDE87040FFF769BD00BF52
:104A4000401A00BF216851E8001F226821F49071CC
:104A500042E80013DBB1216851E8001F226821F40D
:104A6000907142E8001393B1216851E8001F226859
:104A700021F4907142E800134BB1216851E8001F06
:104A8000226821F4907142E80013002BDAD14FF62E
:104A9000FE71CEF6FF7100BF226852E8022F236834
:104AA0000A4043E80226C6B1226852E8022F236872
:104AB0000A4043E8022686B1226852E8022F2368A2
:104AC0000A4043E8022646B1226852E8022F2368D2
:104AD0000A4043E80226002EDED12021C4F88C10C3
:104AE0000021E166616700BF216851E8001F22686C
:104AF00021F0100142E80013DBB1216851E8001FEA
:104B0000226821F0100142E8001393B1216851E8B6
:104B1000001F226821F0100142E800134BB1216808
:104B200051E8001F226821F0100142E80013002B19
:104B3000DAD1022281B220462267BDE87040FFF739
:104B400053BC00BF626F002A3FF49BAE20469047E3
:104B5000216896E610B5D8B10446D0F8880028B987
:104B6000002084F88400204600F026F82420C4F8B1
:104B700088002068A16A026822F00102026011B177
:104B8000204601F05DFD204601F0D8FF012801D14B
:104B9000012010BD2168486820F490404860886872
:104BA00020F02A008860086840F0010220460A6070
:104BB000BDE8104001F0B8BD2DE9F0419AB00446BF
:104BC00001A804304C21FBF7C0FD206843F600012A
:104BD000C4F20101884203D01AB0BDE8F08100BFE1
:104BE000012501A80195FEF7F7F9002818BFFDF788
:104BF000E9FC4C20C5F60000416940F2080841F488
:104C0000804141614169002601F480411591159967
:104C10000168C4F2020841F002010160006815A9B0
:104C200000F0020015901598C02015900220CDE9E3
:104C300016050720199040F20040C4F600001896AF
:104C4000FDF7AAFE41F23445C2F200050E2080278E
:104C5000C5E900802846C5E90266C5E90476C5E9CC
:104C600006662E62FDF790FD002818BFFDF7AAFC2E
:104C7000C4F88050AC6241F2944508F11400C2F2CD
:104C800000050F21102285E8C7002846C5E9056602
:104C9000C5E90766FDF778FD002818BFFDF792FC0F
:104CA000242000210022E567AC62FEF773F824207F
:104CB000FEF748F81AB0BDE8F0810000B0B5044630
:104CC000D0F8880020281CBF0220B0BD00294FF07A
:104CD000010059D0002A134608BFB0BD0022212090
:104CE0002165A4F85430A4F85630C4F89020C4F8D4
:104CF0008800E06FF0B146F6A905C0F600054563EF
:104D0000256846F6852C46F6353EC0F6000CC0F602
:104D1000000E826305F12802C0E90BCEFDF7CAFD43
:104D200040B11020C4F890002020C4F88800012071
:104D3000B0BD00BF20684021016200BF206850E87C
:104D4000020F216840F0800041E80202F2B12068C1
:104D500050E8020F216840F0800041E80202AAB149
:104D6000206850E8020F216840F0800041E802020C
:104D700062B1206850E8020F216840F0800041E8ED
:104D80000202002ADAD10020B0BD00BF0020B0BD71
:104D9000006843F60001C4F20101884218BF704761
:104DA00040F20030C2F20000006808B1004700BFC6
:104DB0007047000070470000704700007047000017
:104DC000FDF7C4BE7047000040F2DC20C2F20000D4
:104DD0004068004740F60440C5F60000016821F035
:104DE000010101607047000070B582B040F25410BC
:104DF000C2F2030000F05CFCA0B940F2541440F28F
:104E0000DC26C2F2030401ADC2F2000620462946A8
:104E100000F05CFC019831688847204600F048FCAF
:104E20000028F3D002B070BD40F60840C5F600007F
:104E30004FF480310160704781B040F25010C5F6E8
:104E40000000016841F480110160016801F48011E3
:104E500000910099D0F8D01641F40071C0F8D01636
:104E600040F6D401C5F600010A6842F400720A60F7
:104E700040BF20BFD0F8BC1241F40041C0F8BC12C2
:104E800001B0704780B582B04FF2504040F600410B
:104E9000CFF6FF70C5F600010A5842F480120A509E
:104EA000085800F4801001900198086840F0010053
:104EB0000860086840F4803008602C20FDF742FF4D
:104EC0002D2002B0BDE88040FDF73CBF10B540F694
:104ED0000444C5F60004A168090705D480474FF4CF
:104EE0000020606010BD00BF40F2FC21C2F2000152
:104EF0000860206820F40020206010BD10B540F646
:104F00000444C5F60004A069800707D5206880071F
:104F100004D400F027F8022014E000BFA069C00705
:104F200006D02068C00703D1FFF75EFF012009E02B
:104F3000A069000707D52068000748BF10BD00F032
:104F400047F80820606010BD40F20000C2F2030084
:104F5000C16840F2DC21C2F200018968C0680068C3
:104F60000847000070B582B040F25C10C2F2030046
:104F700000F09EFBA0B940F25C1440F2DC26C2F2C5
:104F8000030401ADC2F200062046294600F09EFB54
:104F9000F16801988847204600F08AFB0028F3D08A
:104FA00002B070BD40F60440C5F60000016821F073
:104FB000020101607047000040F60440C5F60000A1
:104FC0004FF400314160016821F400310160704705
:104FD000B0B582B040F26C10C2F2030000F068FB82
:104FE00080B940F26C14C2F2030401AD2046294698
:104FF00000F06CFB019801F0D7FA204600F058FB56
:105000000028F3D002B0B0BD40F60440C5F6000061
:10501000016821F0080101607047000010B540F6FA
:105020000444C5F60004A06880075CBF20685FEAFE
:10503000803015D5A06800075CBF20685FEA0030AB
:1050400016D5A06880065ABF20685FEA802010BD90
:10505000206840F400102060BDE81040FFF7B4BEA7
:10506000206840F400302060BDE81040FFF76CBFBE
:10507000206840F40020206040F2FC20C2F20000D2
:10508000006880474FF40020606010BD2DE9F041BA
:1050900040F2DC18C2F20008D8F80010CA224A62B6
:1050A00053224A6242F60802C4F20002136843F037
:1050B00020031360136803F00703C3F1040440F2F4
:1050C0003C23C2F200039C709568C5F30645013588
:1050D000DD70966840F600026FF3DF36771CDF80E4
:1050E0004FF6C067CFF6FF7716FB0577E6B2F740BD
:1050F0004FF6FE76C5F60002B74288BF4FF0FF3785
:105100001F81176847F400271760D2F8807047F4B2
:105110000027C2F8807048B1C868400533D5032025
:10512000FDF724FED8F800102DE000BF01205870D4
:105130004FF0FF30D86041F2A430C2F200000027E7
:10514000077380F8247080F83C7080F8547080F801
:105150006C7080F8847006201870886820F4806075
:105160008860C86860F4906020F48060C8604FF484
:105170000020D0600320FDF7B9FDD8F80010886842
:1051800040F480408860FF20486203200321002211
:10519000FDF700FE0320BDE8F041FDF7D3BD0000A0
:1051A000104700002DE9F04F81B040F2DC1AC2F246
:1051B000000AEFF3108BEFF3108072B6DAF80030CC
:1051C000CA20586253205862986841F2A43620F4ED
:1051D0008060986040F23C20C2F200000478C2F285
:1051E000000604EB440706EBC7010A4612F80C5F01
:1051F000022D13D156F83780D1F8109043785BB365
:105200004B7B012B2ED10378A34201F115032FD143
:10521000077807711B7803703FE000BFD86840072C
:1052200009D4D86840075CBFD8685FEA407002D4F0
:10523000D8684007F2D5D8684FF4002160F4906038
:1052400020F48060D86040F60C00C5F600000160D4
:105250008BF3108835E000BF00F02EFC8BF3108834
:105260002FE000BF8BF31088204600F043F91DE0CB
:105270008E461EF8145F93F800C01B7805EB4505B9
:1052800006EBC505BCF1060F6B7506D09EF8003025
:105290000CEB4C0706EBC7073B7501231370007836
:1052A0008BF310884968204600F012F8DAF8000005
:1052B000CA21416253214162484621464246FFF7D6
:1052C0006FFFDAF80000FF21416201B0BDE8F08F06
:1052D0002DE9F04741F2A436824600EB4000C2F2CD
:1052E000000606EBC0073C4614F80C0F0D460228DA
:1052F00002D1504600F0FEF8EFF31089EFF3108072
:1053000072B60320FDF706FD40F2DC18C2F2000879
:10531000D8F800E0CA20CEF824005320CEF82400AC
:1053200002203946207041F8085F40F23C2241F8E3
:10533000045CC2F200021078062811D110784FF0F8
:10534000000C1071062082F800A078754FF0FF3035
:10535000D06010781279824240F09F80BAE000BF9E
:10536000D068013020D042F62805C4F20005286834
:1053700083B200BF286884B2A3420CD0286883B2ED
:105380009C4207D0286884B2A34204D0286883B224
:105390009C42EFD12346D068984209D2D088D56884
:1053A000C01A431906E000BF4FF0000C07E000BF31
:1053B000D068C31AD0789578584320FA05FC08685D
:1053C00010FA8CF008600C68107800EB400006EBD7
:1053D000C0008068A0420BD913781078984261D140
:1053E00003EB430006EBC00000F114057B7567E09A
:1053F00040F23C23C2F200031D7805EB450006EBAA
:10540000C00313F8150F062836D000EB400006EB5A
:10541000C0008068A0422FD81D7805EB450006EB40
:10542000C00313F8150F062826D000EB400006EB4A
:10543000C0008068A0421FD81D7805EB450006EB30
:10544000C00313F8150F062816D000EB400006EB3A
:10545000C0008068A0420FD81D7805EB450006EB20
:10546000C00313F8150F062806D000EB400006EB2A
:10547000C0008068A042BFD91C78062C1EBF04EB78
:10548000440006EBC00080F814A07C753D7583F8DD
:1054900000A01078127982421CD000F00DFBD8F8E1
:1054A00000E01CE003EB430006EBC00515F8140F09
:1054B00000EB400406EBC40484F815A07B75387536
:1054C00085F800A01078107182F800A01078127989
:1054D0008242E2D108681FFA8CF2801A0860FF202D
:1054E000CEF824000320FDF72DFC89F31088BDE8D9
:1054F000F08700002DE9F04381B00446EFF31089F6
:10550000EFF3108072B60320FDF704FC40F2DC18C4
:10551000C2F20008D8F80000CA214162532141F2CA
:10552000A433416204EB4401C2F2000303EBC10265
:10553000164616F80C1F022959D140F23C21C2F23E
:1055400000010F78A74202F1150705D10A780A7108
:105550003A780A7011E000BF12F8145F3C783F7887
:1055600005EB450503EBC505062C6F7505D01278D4
:1055700004EB440703EBC7031A75012232700A7863
:10558000062A04BF4FF0FF32CA600A78062A29D1E2
:1055900042F60801C4F200010968490534D4816863
:1055A00021F480618160C168490709D4C168490755
:1055B0005CBFC1685FEA417102D4C1684907F2D596
:1055C000C16861F4906121F48061C16040F60C0013
:1055D000C5F600004FF4002101600320FDF786FBB3
:1055E00005E000BF0879904218BF00F065FAD8F8CE
:1055F0000000FF2141620320FDF7A4FB89F310881E
:1056000001B0BDE8F08300BFC1684907C7D5C168D4
:10561000490744BFC1685FEA4171C0D5C168490705
:10562000F2D4BCE710B54FF0000408B1204610BD1D
:1056300040F20030C2F20000036041F2E87043F62D
:105640000003C2F20000C4F201030360FFF736FB5F
:10565000042838BF0446204610BD0000FEE70000C5
:1056600070470000FFF74ABCFFF7D8BC7047000046
:105670000060406070470000EFF31082EFF310838A
:1056800072B6036848600B6001600B68596082F372
:1056900010887047EFF31082EFF3108372B64368FF
:1056A00008604B6041604B68196082F31088704756
:1056B000EFF31081EFF3108272B6026881F3108865
:1056C000101AB0FA80F0400970470000EFF3108C18
:1056D000EFF3108372B603680B600068EFF310817C
:1056E000EFF3108372B6036842681360006842608B
:1056F00081F310888CF31088704700007047000019
:105700007047000010B582B044F210009024C5F636
:1057100000004FF40041C5F60004016060684001DC
:105720000ED56068C0000BD4FDF744FCFDF742FCC9
:10573000206840F480302060206820F480302060B1
:1057400054F8400C3F2140F4801044F8400C54F8C9
:10575000400C00F480100190019840F60440C5F61A
:10576000000041604161016841F47C110160016900
:1057700041F47C110161016841F03F010160016960
:1057800041F03F010161002000F0CEF858B14CF625
:10579000FE21CCF6FE218079E160E16821F47C51A4
:1057A00041EA0020E06002B010BD000010B588B0F2
:1057B00040F69000C5F600000168082441F0500151
:1057C000016042F62400C4F20000CA2101605321A6
:1057D000016050F81C1CC5F6000421F0070140F8D8
:1057E0001C1CFF210160206840F40040206001F093
:1057F0004FFCD4F87804042161F3020040F2DC117C
:10580000C4F87804C2F200010020FFF73FFCFCF767
:1058100053F800F041FE47F6E172C0F600020420A2
:10582000002101F06FFC40F2E410C2F2030000908E
:1058300041F6DD00C0F60000019041F6E100C0F63F
:105840000000694602F04CFB40F2F020C2F2030077
:10585000029040F2FC30C2F20300039040F2085084
:10586000C2F20300049040F23C50059002A800F000
:105870004BFE00F00FFE08B010BD00004FF0FF30EF
:1058800001F07CBC80B541F2E87043F60001C2F241
:105890000000C4F2010100234FF00C0C4FF4004E45
:1058A0004FF4E13280E80E00C0E90333C0E905C3DC
:1058B000C0E907E3C0E90933FFF74CF920B1EFF382
:1058C000108072B6FEE700BF41F2E870C2F200003D
:1058D0000021FEF7D3FD28B1EFF3108072B600BFB0
:1058E000FEE700BF41F2E870C2F200000021FEF7BF
:1058F0007FFD28B1EFF3108072B600BFFEE700BF56
:1059000041F2E870C2F20000FEF752FD002808BF25
:1059100080BDEFF3108072B6FEE70000FEE70000E6
:10592000FEE700007047000047F2000CC1F6FF7C64
:1059300001460CF57E7000BFC2798A421AD010F879
:10594000012C8A421CD010F8092C8A421ED010F873
:10595000113C5A1A18BF01228B42A0F1200303D038
:10596000183860451846E7D103F10800002A18BF2F
:10597000002070470022002A18BF0020704700BF97
:1059800008380022002A18BF002070471038002273
:10599000002A18BF0020704710B50446FAF788FEA9
:1059A000204610BD10B51346CAB219460446FAF790
:1059B000C4FE204610BD0000704700007047000084
:1059C00070B53C2148F6204201EA9001C0F6000281
:1059D0001144B02888BF02F12C01086840F2081178
:1059E000C5F60001096848F6C03201F00F01C0F6A3
:1059F000000252F82110B0FBF1F4FDF7D3FAB0F534
:105A0000007F19D14EF6C020C0F22110844227D366
:105A100049F24030C0F23420844223D343F6C030F0
:105A2000C0F2473084421FD34DF23F20C0F2DF3036
:105A3000844213D8032018E04CF6BF70C0F26A000D
:105A400084420DD945F64050C0F2C600844209D3C5
:105A500046F23F60C0F20310844205D9002507E0FA
:105A6000002002E0012000E002200EA151F82050A9
:105A700044F20006C5F60006306820F0070028430F
:105A80003060FDF755F80446306800F00700A84282
:105A900006D0FDF74DF8001B0328F5D3032070BD99
:105AA000002070BD000000000100000002000000A6
:105AB00003000000FFF776BB2DE9F04381B042F60A
:105AC0002804C4F2000440F2DC1854F8201CC2F28E
:105AD0000008D8F80000490534D4816840F23C2918
