:020000040800F2
:1000000080060020DD010008591300085113000884
:1000100055130008E5020008C514000800000000A0
:10002000000000000000000000000000551400085F
:10003000E9020008000000005D13000859140008E0
:10004000F7010008F7010008F7010008F7010008B0
:10005000F7010008F7010008F7010008F7010008A0
:10006000F7010008F7010008F7010008F701000890
:10007000F7010008F7010008F7010008F701000880
:10008000F7010008F7010008F7010008F701000870
:10009000F7010008F7010008F7010008F701000860
:1000A000F7010008F7010008F7010008F701000850
:1000B000F7010008F7010008F7010008F701000840
:1000C000F7010008F7010008F7010008F701000830
:1000D000F7010008F7010008F7010008F701000820
:1000E000F7010008F7010008F7010008F701000810
:1000F000F7010008F7010008F7010008F701000800
:10010000F7010008F7010008F7010008F7010008EF
:10011000F7010008F7010008F7010008F7010008DF
:10012000F7010008F7010008F7010008F7010008CF
:10013000F7010008F7010008F701000800F002F8D5
:1001400000F03CF80AA090E8000C82448344AAF135
:100150000107DA4501D100F031F8AFF2090EBAE833
:100160000F0013F0010F18BFFB1A43F001031847EB
:100170009C140000BC140000103A24BF78C878C159
:10018000FAD8520724BF30C830C144BF04680C609D
:10019000704700000023002400250026103A28BFE5
:1001A00078C1FBD8520728BF30C148BF0B607047E9
:1001B0001FB501F0DEF91FBD10B510BD00F058F8F5
:1001C0001146FFF7F5FF01F07FF900F076F803B470
:1001D000FFF7F2FF03BC00F07DF8000009488047FC
:1001E00009480047FEE7FEE7FEE7FEE7FEE7FEE719
:1001F000FEE7FEE7FEE7FEE704480549054A064B31
:10020000704700005D1400083D01000880000020D8
:100210008006002080020020800200204FF00002B3
:1002200000B5134694469646203922BFA0E80C50EC
:10023000A0E80C50B1F12001BFF4F7AF090728BFC7
:10024000A0E80C5048BF0CC05DF804EB890028BF43
:1002500040F8042B08BF704748BF20F8022B11F06C
:10026000804F18BF00F8012B7047704770477047E8
:10027000754600F02BF8AE4605006946534620F05F
:100280000700854618B020B5FFF7B6FFBDE820404F
:100290004FF000064FF000074FF000084FF0000B42
:1002A000AC46ACE8C009ACE8C009ACE8C009ACE8B1
:1002B000C00921F007018D46704710B50446AFF321
:1002C00000802046BDE81040FFF781BF004870471E
:1002D0001800002001491820ABBEFEE726000200EE
:1002E00070470000FEE700007047000040F2780011
:1002F000C2F200000068704740F20800C2F200003D
:100300004068704740F2080040F27801C2F20000F5
:10031000C2F2000100780A681044086070470000CB
:1003200080B544F20000C5F60000016841F4807118
:100330000160032000F05EF80F2000F009F80028AB
:100340001CBF012080BD00F027F8002080BD000008
:1003500070B540F20806C2F200063178D1B1044609
:1003600000F0DAFB31784FF47A72B2FBF1F1B0FBB6
:10037000F1F000F0D7FF0F2C4FF0010508D838B985
:100380004FF0FF3021460022002500F007F874608E
:10039000284670BD012070BD7047000010B54EF6B4
:1003A0000C5CCEF2000CDCF80030C3F3022E8EF0B1
:1003B0000704042C28BF0424BEF103034FF0FF3EC2
:1003C0000EFA04F438BF0023A14399400EFA03F358
:1003D0009A43114300F00F0200F160430901043A0F
:1003E00003F564436244002848BF02F10C0319700E
:1003F00010BD00004EF60C51CEF200010A684FF617
:10040000FF031A4060F30A2242F0806040F0FD7062
:100410000860704740F20040C5F60000006800F434
:10042000C060704740F20040C5F60000016841F42A
:1004300080710160704700002DE9F04381B00446EF
:10044000007888274006C5F6000717D5206B6FF0A7
:10045000010101EBB05102290BD34FEAB051002941
:100460004CD0012960D157F87C1C41F4803147F809
:100470007C1C396821F44001084338604FF00009C2
:10048000607800072AD5B868216C00F440758D4269
:1004900024D0FFF7C7FF002D4AD0B868B96820F410
:1004A000407041F48031B960B96821F48031B9609D
:1004B000216C0843B860B868C0070FD0FFF716FF7B
:1004C000064641F2893500BFB868800706D4FFF7B9
:1004D0000DFF801BA842F7D34FF003092068C10726
:1004E0002FD1810735D4C1063BD4810645D44107BD
:1004F0004FD401075BD4C00567D4B6E04FF0B046D7
:10050000306820F080603060FFF7F0FE054600BFE5
:100510003068000140F12C81FFF7E8FE401B022803
:10052000F6D94FF00309ABE74FF00109A8E700BF88
:10053000206CB96821F440710843B8602068C10795
:10054000CFD0A1693A6822F00302114339608107D4
:10055000C9D5E1693A6822F4406211433960C106A5
:10056000C3D5A16A3A684FF6FF7363EA01031A40E4
:1005700042EA014139608106B9D5E16A3A684FF62D
:10058000FF7363EA01031A4042EA014139604107FF
:10059000AFD5216A3A686FF47F2363EA11131A40DA
:1005A00001F47F4142EA011139600107A3D5616A74
:1005B0003A686FF47F2363EA11131A4001F47F4114
:1005C00042EA01113960C0054FD5606B3968B0F15E
:1005D000806F21F0406141EA000139600CD0B0F138
:1005E000006F42D157F87C0C40F0807047F87C0CCB
:1005F0002068810560D53BE04FF0B045286820F0C9
:1006000080602860FFF772FE064600BF2868000180
:1006100006D5FFF76BFE801B0228F7D923E000BF49
:1006200057F8780C616820F4FE4040EA0120E26847
:1006300047F8780C57F8780C4FF0B04520F0606020
:10064000104347F8780C286840F080602860FFF776
:100650004DFE06462868000100F1B280FFF746FE15
:10066000801B0228F6D94FF003092068810523D5A5
:10067000A16B6FF04042B1F1004F0DD061B1B1F10B
:10068000804F0B4609D03A6821F0805322F0404257
:100690003A606FF0406200E00B463E68B1F1C05F27
:1006A00002EA060242EA03023A6005D157F87C1CCE
:1006B00041F0807147F87C1C40054FD5E06B3968EC
:1006C000B0F1805F21F0405141EA000139600DD066
:1006D000B0F1005F42D157F87C0C40F4803047F80D
:1006E0007C0C2068C10400F180803AE04FF0B045F6
:1006F000286820F080602860FFF7F8FD064600BFFC
:100700002868000106D5FFF7F1FD801B0228F7D904
:1007100022E000BF57F8780C616820F4FE4040EA00
:100720000120226947F8780C57F8780C4FF0B04553
:1007300020F06040104347F8780C286840F0806053
:100740002860FFF7D3FD06462868000144D4FFF770
:10075000CDFD801B0228F7D94FF003092068C104A2
:1007600043D4800449D4484601B0BDE8F08300BFBB
:1007700057F8780CD4E9011220F4FE4040EA012039
:1007800047F8780C57F8780C4FF0B04820F4781000
:10079000104347F8780CD8F8000040F08060C8F8A3
:1007A0000000FFF7A3FD06464FF00309D8F800004C
:1007B000000137D4FFF79AFD801B0228F6D95FE6C7
:1007C000606957F8781C084347F8780C2068810561
:1007D0007FF572AF4CE700BF606957F8781C08439B
:1007E00047F8780C2068C104BBD5616CFA6822F424
:1007F00040421143F9608004B5D5D4E9120157F89D
:10080000642C22F03002114347F8641C57F8641C32
:1008100021F00301084347F8640C484601B0BDE8E5
:10082000F08300BF57F8781C6269206B114347F8CA
:10083000781C1EE62DE9F04381B0002800F0CB8043
:1008400044F20008C5F600080546D8F800000C463A
:1008500000F00700884215D2D8F8000020F0070009
:100860002043C8F80000FFF741FD0646D8F8000015
:1008700000F00700A04205D0FFF738FD801B0228DA
:10088000F4D977E0286808278107C5F6000714D552
:10089000A868396821F0F00108433860FFF726FDA9
:1008A000064600BF3868C00306D4FFF71FFD801B53
:1008B0000228F7D95EE000BF2868810615D568696F
:1008C000D7F8001121F0F0010843C7F80001FFF745
:1008D0000DFD0646D7F80001800305D4FFF706FD9D
:1008E000801B0228F6D945E02868410617D5A8697B
:1008F000D7F8001121F00F0141EA1010C7F80001EC
:10090000FFF7F4FC064600BFD7F80001C00305D48A
:10091000FFF7ECFC801B0228F6D92BE02868410782
:1009200013D5E868396821F4E06108433860FFF7BF
:10093000DDFC06463868800306D4FFF7D7FC801B31
:100940000228F7D916E000BF2868010717D52869E3
:10095000396821F4605141EAC0003860FFF7C6FCF5
:10096000064600BF3868400308D4FFF7BFFC801B71
:100970000228F7D9032001B0BDE8F0832868C0073A
:100980001ED1D8F8000000F00700A04228D9D8F8FE
:10099000000020F007002043C8F80000FFF7A6FC85
:1009A000054600BFD8F8000000F00700A04217D0AD
:1009B000FFF79CFC401B02284FF00300F2D947E0F0
:1009C00068684FF0B04138B3032845D0022847D1BA
:1009D0000968890323D4012001B0BDE8F08300BF7A
:1009E000386800F00C0108293ED042F2004004298A
:1009F000C0F2F40078D0002944D14FF0B040006834
:100A000041F2CC5100F0F000B02828BFB02080089F
:100A1000C0F60001085867E009688907DBD5396826
:100A200021F0030108433860FFF760FC064641F2FD
:100A3000883900BF3868696800F00C00B0EB810F9E
:100A40009FD0FFF753FC801B48454FF00300F1D9BE
:100A500001B0BDE8F08300BF09688901BBD5DEE7BE
:100A600009684905B7D5DAE74FF0B0400068C00221
:100A700040F60010C0F23D005CBF41F20020C0F221
:100A80007A0031E0796801F0030102291CD04FF0AF
:100A9000B04003290CD10068C00240F60010C0F23B
:100AA0003D005CBF41F20020C0F27A000CE000BFC4
:100AB000006841F2CC5100F0F000B02828BFB0200F
:100AC0008008C0F60001085879687A68C1F30621E9
:100AD0004843C2F302110131B0FBF1F07968012201
:100AE00002EB5171B0FBF1F039683C2202EA91014E
:100AF00041F28C52C0F600025158B0FBF1F040F2C6
:100B00001001C2F200010860FFF7F6FB01B0BDE87A
:100B1000F043FFF71DBC00000C20C5F6000050F8A4
:100B2000041C01F00C02082A16D042F20041042AEB
:100B3000C0F2F40150D0EAB94FF0B041096841F277
:100B4000CC5201F0F001B02928BFB0218908C0F6CD
:100B50000002515840E000BF4FF0B0410968C9029F
:100B600040F60011C0F23D015CBF41F20021C0F22D
:100B70007A0131E0026802F00302022A1CD04FF031
:100B8000B041032A0CD10968C90240F60011C0F235
:100B90003D015CBF41F20021C0F27A010CE000BFD0
:100BA000096841F2CC5201F0F001B02928BFB02110
:100BB0008908C0F60002515802680368C2F3062291
:100BC0005143C3F302120132B1FBF2F10268012377
:100BD00003EB5272B1FBF2F150F8040C3C2202EA32
:100BE000900041F28C52C0F600021058B1FBF0F0B8
:100BF00070470000F0B581B0002800F05B83044628
:100C0000007894268006C5F6000659D42078C007DF
:100C100013D056F88C0C00F00C0156F8880C0829FB
:100C200007D00C2940F0E08000F00300032840F0DA
:100C3000DB806068002800F03D83207880071CD5A9
:100C400056F88C0C00F00C0156F8880C042907D0DB
:100C50000C2940F0EB8000F00300022840F0E68011
:100C6000E068002800F02683206956F8901C21F0E7
:100C7000FE4141EA006046F8900C216811F0180F1F
:100C800000F07C8162693068002A00F09B8011F0DE
:100C9000100140F0B58040F001003060FFF726FB06
:100CA000054600BF3068800700F12681FFF71EFB74
:100CB000401B02284FF00300F4D901B0F0BD00BF83
:100CC00056F88C0C10F00C0156F8880C05D00C2945
:100CD0002AD100F00300012826D1E069002800F0A5
:100CE000E9824FF0B041606A0A6802F0F002B02A6F
:100CF00028BFB022904231D900F032FB002840F0EA
:100D0000D9824FF0B042D4E90801136823F0F00310
:100D10001943116056F8901C21F47F4141EA0020EC
:100D200046F8900C2DE000BFE1694FF0B0473868FD
:100D3000002900F0958040F001003860FFF7D6FAF6
:100D4000054600BF3868800700F1B080FFF7CEFA93
:100D5000401B02284FF00300F4D9AEE70A6822F0E6
:100D6000F00202430A60216A56F8902C22F47F4276
:100D700042EA012146F8901C00F0F2FA002840F007
:100D8000998256F88C0C00F00C01082900F00482BE
:100D900042F200400429C0F2F40000F07082002901
:100DA00040F008824FF0B040006841F2CC5100F0B2
:100DB000F000B02828BFB0208008C0F60001085815
:100DC0005DE200BF20F004003060FFF78FFA0546B7
:100DD0003068000740F17C80FFF788FA401B032849
:100DE0004FF00300F4D968E761684FF0B040026843
:100DF000B1F5803F40F0908042F48031016091E095
:100E000080073FD4306840F001003060FFF76EFA91
:100E1000054600BF3068800734D4FFF767FA401BEF
:100E200002284FF00300F5D947E700BFE1684FF013
:100E3000B0473868002900F09D8140F48070386028
:100E4000FFF754FA054600BF386840053FF50CAF80
:100E5000FFF74CFA401B02284FF00300F4D92CE7AF
:100E600020F001003860FFF741FA05463868800736
:100E70007FF5CCAEFFF73AFA401B02284FF0030093
:100E8000F4D91AE7306840F004003060FFF72EFA1A
:100E9000054600BF3068000756D4FFF727FA401B0D
:100EA00003284FF00300F5D907E700BF4FF0B04229
:100EB000D4E90801136823F0F0031943116056F8D0
:100EC000901C21F47F4141EA002046F8900C9DE6F9
:100ED000306820F001003060FFF708FA054600BFD7
:100EE000306880074AD5FFF701FA401B02284FF00F
:100EF0000300F5D9E1E600BF306820F0040030605F
:100F0000306800073AD5FFF7F1F9401B03284FF08E
:100F10000300F5D9D1E600BF22F480320029026037
:100F200000F05E81FFF7E2F905464FF0B04700BFE1
:100F3000386880033FF581AEFFF7D8F9401B64287D
:100F40004FF00300F4D9B8E6A069316821F470616C
:100F500041EA00203060306820F001003060FFF787
:100F6000C5F905463068800708D5FFF7BFF9401B73
:100F700002284FF00300F5D99FE600BF2078400714
:100F800052D42078400677D4E06A002800F0C68169
:100F900056F88C2C56F8881C022802F00C0040F001
:100FA0008180226B01F00303934240F09380626BD7
:100FB00001F07003934240F08D80A26BC1F30623D1
:100FC000934240F08780E26B01F47813934240F043
:100FD0008180226C01F06063934240F07B80626C00
:100FE00001F06041914275D14FF0B0452868800111
:100FF00000F19481286840F08070286056F8880CD1
:1010000040F0805046F8880CFFF770F904462868D5
:10101000800100F18381FFF769F9001B02284FF07E
:101020000300F4D949E600BFD6F86C03C00511D41B
:10103000FFF7F8F9FFF75AF9054600BFD6F86C0339
:10104000C00507D4FFF752F9401B02284FF00300F8
:10105000F4D932E6A068012807D0052868D156F8EF
:10106000040C40F0040046F8040C56F8040C40F060
:10107000010046F8040C69E0A16A7068002945D0B7
:1010800040F001007060FFF731F905467068800795
:101090003FF57AAFFFF72AF9401B02284FF0030013
:1010A000F4D90AE60C2800F005814FF0B045286815
:1010B00020F080702860FFF719F904462868800145
:1010C00040F1B280FFF712F9001B02284FF0030035
:1010D000F4D9F2E50C2800F0ED804FF0B047386805
:1010E000400100F1E780386820F080703860FFF739
:1010F000FDF805463868800140F1E080FFF7F6F81A
:10110000401B02284FF00300F4D9D6E520F001007F
:101110007060FFF7EBF80546706880077FF534AF25
:10112000FFF7E4F8401B02284FF00300F4D9C4E5B0
:1011300056F8041C002821F0010146F8041C56F85A
:10114000041C21F0040146F8041C5BD0FFF7CEF824
:10115000054641F2883700BF56F8040C80073FF57A
:1011600010AFFFF7C3F8401BB8424FF00300F3D9AC
:10117000A3E500BF20F480703860FFF7B7F805469C
:10118000386840057FF579ADFFF7B0F8401B0228BD
:101190004FF00300F4D990E54FF0B0400068C00272
:1011A00040F60010C0F23D005CBF41F20020C0F2EA
:1011B0007A0064E056F8881C01F0030102294BD044
:1011C0004FF0B04003293BD10068C00240F6001048
:1011D000C0F23D005CBF41F20020C0F27A003BE06B
:1011E000FFF784F805464FF0B047386880037FF575
:1011F00024ADFFF77BF8401B64284FF00300F4D9BF
:101200005BE500BFFFF772F8054641F2883756F8F4
:10121000040C80077FF5B5AEFFF768F8401BB842B5
:101220004FF00300F3D948E556F8880C4FF6FC71EF
:10123000CEF6FE61084046F8880C002001B0F0BDF3
:10124000006841F2CC5100F0F000B02828BFB02077
:101250008008C0F60001085856F8881C56F8882CFB
:10126000C1F306214843C2F302110131B0FBF1F092
:1012700056F8881C012202EB5171B0FBF1F056F8D0
:101280008C1C3C2202EA910141F28C52C0F6000211
:10129000515840F21002B0FBF1F140F20C00C2F2E2
:1012A00000000068C2F200021160FFF751F8002848
:1012B0003FF4ACAC012001B0F0BD00BF56F8880C83
:1012C00048F28C01C1F2C11104F1300708408ECF01
:1012D000D4E910540843104340EA0320384328431C
:1012E000204346F8880C4FF0B045286840F08070E5
:1012F000286056F8880C40F0805046F8880CFEF7BD
:10130000F5FF04462868800108D4FEF7EFFF001BB4
:1013100002284FF00300F5D9CFE400BF002001B050
:10132000F0BD0000411E0020B0EB116F1CBF01207A
:1013300070474EF21002CEF2000251604EF6235179
:10134000CEF20001F0230B7007219060116070470E
:10135000FEE70000FEE70000FEE700007047000027
:1013600070B53C2141F2CC5201EA9001C0F6000276
:101370001144B02888BF02F12C01086840F208111E
:10138000C5F60001096841F28C5201F00F01C0F668
:10139000000252F82110B0FBF1F4FFF73BF8B0F572
:1013A000007F19D14EF6C020C0F22110844227D30D
:1013B00049F24030C0F23420844223D343F6C03097
:1013C000C0F2473084421FD34DF23F20C0F2DF30DD
:1013D000844213D8032018E04CF6BF70C0F26A00B4
:1013E00084420DD945F64050C0F2C600844209D36C
:1013F00046F23F60C0F20310844205D9002507E0A1
:10140000002002E0012000E002200EA151F820504F
:1014100044F20006C5F60006306820F007002843B5
:101420003060FEF763FF0446306800F00700A84212
:1014300006D0FEF75BFF001B0328F5D3032070BD29
:10144000002070BD0000000001000000020000004C
:101450000300000070470000FEF754BF4EF68850AE
:10146000CEF2000001684FF4E02241F47001016007
:101470004FF0B04001684FF6FB6341F0010101609D
:101480009421C5F6000141F88C2C0268CFF6F623B2
:101490001A4002600A6822F005020A604A6822F0D7
:1014A00001024A6041F20002C2F2042241F8882C93
:1014B00041F8842C026822F480220260002041F866
:1014C0007C0C7047FEE700009CB0FEF729FF08ACDB
:1014D000251D28464421FEF7A1FE40F20040C5F636
:1014E00000000168012262F34A21016000680026C1
:1014F00000F4C06001900198222008904FF48070A1
:101500000B9040200C906020119020460F92109676
:101510001396FFF76FFB28B1EFF3108072B600BF90
:10152000FEE700BF6F20CDE9010601A80021CDE94B
:101530000366CDE905660796FFF77CF920B1EFF366
:10154000108072B6FEE700BF28464421FEF766FE13
:101550004FF40050089000201A9010201B90204655
:10156000FEF76AFF20B1EFF3108072B6FEE700BF0E
:10157000FEE7F1EE100A4FF6FF71C0F2C03120EA2B
:10158000010040F04070E1EE100A704701000000D9
:101590000300000005000000010000000100000041
:1015A000060000000A000000200000000200000009
:1015B00004000000080000001000000040000000CF
:1015C000800000000001000000020000A086010071
:1015D000400D0300801A060000350C0040420F0049
:1015E00080841E0000093D0000127A000024F400EF
:1015F00000366E010048E801006CDC0200000000CB
:10160000000000000000000000000000301600088C
:1016100008000020100000007801000840160008B3
:101620001800002068060000940100080000000077
:10163000010000001000000000093D000000000053
:040000050800013DB1
:00000001FF
